{
    "_format": "hh-sol-artifact-1",
    "contractName": "BSCStream",
    "sourceName": "contracts/BSCStream.sol",
    "abi": [
        {
            "inputs": [],
            "stateMutability": "nonpayable",
            "type": "constructor"
        },
        {
            "anonymous": false,
            "inputs": [
                {
                    "indexed": true,
                    "internalType": "uint256",
                    "name": "streamId",
                    "type": "uint256"
                },
                {
                    "indexed": true,
                    "internalType": "address",
                    "name": "sender",
                    "type": "address"
                },
                {
                    "indexed": true,
                    "internalType": "address",
                    "name": "recipient",
                    "type": "address"
                },
                {
                    "indexed": false,
                    "internalType": "uint256",
                    "name": "senderBalance",
                    "type": "uint256"
                },
                {
                    "indexed": false,
                    "internalType": "uint256",
                    "name": "recipientBalance",
                    "type": "uint256"
                }
            ],
            "name": "CancelStream",
            "type": "event"
        },
        {
            "anonymous": false,
            "inputs": [
                {
                    "indexed": true,
                    "internalType": "uint256",
                    "name": "streamId",
                    "type": "uint256"
                },
                {
                    "indexed": true,
                    "internalType": "address",
                    "name": "sender",
                    "type": "address"
                },
                {
                    "indexed": true,
                    "internalType": "address",
                    "name": "recipient",
                    "type": "address"
                },
                {
                    "indexed": false,
                    "internalType": "uint256",
                    "name": "deposit",
                    "type": "uint256"
                },
                {
                    "indexed": false,
                    "internalType": "address",
                    "name": "tokenAddress",
                    "type": "address"
                },
                {
                    "indexed": false,
                    "internalType": "uint256",
                    "name": "startTime",
                    "type": "uint256"
                },
                {
                    "indexed": false,
                    "internalType": "uint256",
                    "name": "stopTime",
                    "type": "uint256"
                }
            ],
            "name": "CreateStream",
            "type": "event"
        },
        {
            "anonymous": false,
            "inputs": [
                {
                    "indexed": true,
                    "internalType": "uint256",
                    "name": "streamId",
                    "type": "uint256"
                },
                {
                    "indexed": true,
                    "internalType": "address",
                    "name": "recipient",
                    "type": "address"
                },
                {
                    "indexed": false,
                    "internalType": "uint256",
                    "name": "amount",
                    "type": "uint256"
                }
            ],
            "name": "WithdrawFromStream",
            "type": "event"
        },
        {
            "inputs": [
                {
                    "internalType": "uint256",
                    "name": "streamId",
                    "type": "uint256"
                },
                {
                    "internalType": "address",
                    "name": "who",
                    "type": "address"
                }
            ],
            "name": "balanceOf",
            "outputs": [
                {
                    "internalType": "uint256",
                    "name": "balance",
                    "type": "uint256"
                }
            ],
            "stateMutability": "view",
            "type": "function"
        },
        {
            "inputs": [
                {
                    "internalType": "uint256",
                    "name": "streamId",
                    "type": "uint256"
                }
            ],
            "name": "cancelStream",
            "outputs": [
                {
                    "internalType": "bool",
                    "name": "",
                    "type": "bool"
                }
            ],
            "stateMutability": "nonpayable",
            "type": "function"
        },
        {
            "inputs": [
                {
                    "internalType": "address",
                    "name": "recipient",
                    "type": "address"
                },
                {
                    "internalType": "uint256",
                    "name": "deposit",
                    "type": "uint256"
                },
                {
                    "internalType": "address",
                    "name": "tokenAddress",
                    "type": "address"
                },
                {
                    "internalType": "uint256",
                    "name": "startTime",
                    "type": "uint256"
                },
                {
                    "internalType": "uint256",
                    "name": "stopTime",
                    "type": "uint256"
                }
            ],
            "name": "createStream",
            "outputs": [
                {
                    "internalType": "uint256",
                    "name": "",
                    "type": "uint256"
                }
            ],
            "stateMutability": "nonpayable",
            "type": "function"
        },
        {
            "inputs": [
                {
                    "internalType": "uint256",
                    "name": "streamId",
                    "type": "uint256"
                }
            ],
            "name": "deltaOf",
            "outputs": [
                {
                    "internalType": "uint256",
                    "name": "delta",
                    "type": "uint256"
                }
            ],
            "stateMutability": "view",
            "type": "function"
        },
        {
            "inputs": [
                {
                    "internalType": "uint256",
                    "name": "streamId",
                    "type": "uint256"
                }
            ],
            "name": "getStream",
            "outputs": [
                {
                    "internalType": "address",
                    "name": "sender",
                    "type": "address"
                },
                {
                    "internalType": "address",
                    "name": "recipient",
                    "type": "address"
                },
                {
                    "internalType": "uint256",
                    "name": "deposit",
                    "type": "uint256"
                },
                {
                    "internalType": "address",
                    "name": "tokenAddress",
                    "type": "address"
                },
                {
                    "internalType": "uint256",
                    "name": "startTime",
                    "type": "uint256"
                },
                {
                    "internalType": "uint256",
                    "name": "stopTime",
                    "type": "uint256"
                },
                {
                    "internalType": "uint256",
                    "name": "remainingBalance",
                    "type": "uint256"
                },
                {
                    "internalType": "uint256",
                    "name": "ratePerSecond",
                    "type": "uint256"
                }
            ],
            "stateMutability": "view",
            "type": "function"
        },
        {
            "inputs": [],
            "name": "nextStreamId",
            "outputs": [
                {
                    "internalType": "uint256",
                    "name": "",
                    "type": "uint256"
                }
            ],
            "stateMutability": "view",
            "type": "function"
        },
        {
            "inputs": [
                {
                    "internalType": "uint256",
                    "name": "streamId",
                    "type": "uint256"
                },
                {
                    "internalType": "uint256",
                    "name": "amount",
                    "type": "uint256"
                }
            ],
            "name": "withdrawFromStream",
            "outputs": [
                {
                    "internalType": "bool",
                    "name": "",
                    "type": "bool"
                }
            ],
            "stateMutability": "nonpayable",
            "type": "function"
        }
    ],
    "bytecode": "0x608060405234801561001057600080fd5b5060016000819055506000600181905550613554806100306000396000f3fe608060405234801561001057600080fd5b506004361061007d5760003560e01c80637a9b2c6c1161005b5780637a9b2c6c14610100578063894e9a0d14610130578063a82ccd4d14610167578063cc1b4bf6146101975761007d565b80631e99d569146100825780633656eec2146100a05780636db9241b146100d0575b600080fd5b61008a6101c7565b60405161009791906131ee565b60405180910390f35b6100ba60048036038101906100b591906127e3565b6101cd565b6040516100c791906131ee565b60405180910390f35b6100ea60048036038101906100e591906127ba565b61096c565b6040516100f79190612f71565b60405180910390f35b61011a6004803603810190610115919061281f565b610e90565b6040516101279190612f71565b60405180910390f35b61014a600480360381019061014591906127ba565b61151f565b60405161015e989796959493929190612eca565b60405180910390f35b610181600480360381019061017c91906127ba565b6116c3565b60405161018e91906131ee565b60405180910390f35b6101b160048036038101906101ac919061271a565b6118f2565b6040516101be91906131ee565b60405180910390f35b60015481565b6000826002600082815260200190815260200160002060070160149054906101000a900460ff16610233576040517f08c379a000000000000000000000000000000000000000000000000000000000815260040161022a9061300e565b60405180910390fd5b6000600260008681526020019081526020016000206040518061012001604052908160008201548152602001600182015481526020016002820154815260200160038201548152602001600482015481526020016005820160009054906101000a900473ffffffffffffffffffffffffffffffffffffffff1673ffffffffffffffffffffffffffffffffffffffff1673ffffffffffffffffffffffffffffffffffffffff1681526020016006820160009054906101000a900473ffffffffffffffffffffffffffffffffffffffff1673ffffffffffffffffffffffffffffffffffffffff1673ffffffffffffffffffffffffffffffffffffffff1681526020016007820160009054906101000a900473ffffffffffffffffffffffffffffffffffffffff1673ffffffffffffffffffffffffffffffffffffffff1673ffffffffffffffffffffffffffffffffffffffff1681526020016007820160149054906101000a900460ff16151515158152505090506103ad612622565b60006103b8876116c3565b90506103c881846020015161223b565b83600001846020018281525082600381111561040d577f4e487b7100000000000000000000000000000000000000000000000000000000600052602160045260246000fd5b6003811115610445577f4e487b7100000000000000000000000000000000000000000000000000000000600052602160045260246000fd5b815250505060006003811115610484577f4e487b7100000000000000000000000000000000000000000000000000000000600052602160045260246000fd5b826000015160038111156104c1577f4e487b7100000000000000000000000000000000000000000000000000000000600052602160045260246000fd5b14610501576040517f08c379a00000000000000000000000000000000000000000000000000000000081526004016104f89061310e565b60405180910390fd5b8260400151836000015111156107905761052383600001518460400151612293565b836000018460400182815250826003811115610568577f4e487b7100000000000000000000000000000000000000000000000000000000600052602160045260246000fd5b60038111156105a0577f4e487b7100000000000000000000000000000000000000000000000000000000600052602160045260246000fd5b8152505050600060038111156105df577f4e487b7100000000000000000000000000000000000000000000000000000000600052602160045260246000fd5b8260000151600381111561061c577f4e487b7100000000000000000000000000000000000000000000000000000000600052602160045260246000fd5b14610650577f4e487b7100000000000000000000000000000000000000000000000000000000600052600160045260246000fd5b61066282602001518360400151612293565b8360000184602001828152508260038111156106a7577f4e487b7100000000000000000000000000000000000000000000000000000000600052602160045260246000fd5b60038111156106df577f4e487b7100000000000000000000000000000000000000000000000000000000600052602160045260246000fd5b81525050506000600381111561071e577f4e487b7100000000000000000000000000000000000000000000000000000000600052602160045260246000fd5b8260000151600381111561075b577f4e487b7100000000000000000000000000000000000000000000000000000000600052602160045260246000fd5b1461078f577f4e487b7100000000000000000000000000000000000000000000000000000000600052600160045260246000fd5b5b8260a0015173ffffffffffffffffffffffffffffffffffffffff168673ffffffffffffffffffffffffffffffffffffffff1614156107d75781602001519450505050610965565b8260c0015173ffffffffffffffffffffffffffffffffffffffff168673ffffffffffffffffffffffffffffffffffffffff16141561095d5761082183604001518360200151612293565b836000018460600182815250826003811115610866577f4e487b7100000000000000000000000000000000000000000000000000000000600052602160045260246000fd5b600381111561089e577f4e487b7100000000000000000000000000000000000000000000000000000000600052602160045260246000fd5b8152505050600060038111156108dd577f4e487b7100000000000000000000000000000000000000000000000000000000600052602160045260246000fd5b8260000151600381111561091a577f4e487b7100000000000000000000000000000000000000000000000000000000600052602160045260246000fd5b1461094e577f4e487b7100000000000000000000000000000000000000000000000000000000600052600160045260246000fd5b81606001519450505050610965565b600094505050505b5092915050565b6000600260005414156109b4576040517f08c379a00000000000000000000000000000000000000000000000000000000081526004016109ab906131ae565b60405180910390fd5b6002600081905550816002600082815260200190815260200160002060070160149054906101000a900460ff16610a20576040517f08c379a0000000000000000000000000000000000000000000000000000000008152600401610a179061300e565b60405180910390fd5b826002600082815260200190815260200160002060060160009054906101000a900473ffffffffffffffffffffffffffffffffffffffff1673ffffffffffffffffffffffffffffffffffffffff163373ffffffffffffffffffffffffffffffffffffffff161480610af257506002600082815260200190815260200160002060050160009054906101000a900473ffffffffffffffffffffffffffffffffffffffff1673ffffffffffffffffffffffffffffffffffffffff163373ffffffffffffffffffffffffffffffffffffffff16145b610b31576040517f08c379a0000000000000000000000000000000000000000000000000000000008152600401610b289061314e565b60405180910390fd5b6000600260008681526020019081526020016000206040518061012001604052908160008201548152602001600182015481526020016002820154815260200160038201548152602001600482015481526020016005820160009054906101000a900473ffffffffffffffffffffffffffffffffffffffff1673ffffffffffffffffffffffffffffffffffffffff1673ffffffffffffffffffffffffffffffffffffffff1681526020016006820160009054906101000a900473ffffffffffffffffffffffffffffffffffffffff1673ffffffffffffffffffffffffffffffffffffffff1673ffffffffffffffffffffffffffffffffffffffff1681526020016007820160009054906101000a900473ffffffffffffffffffffffffffffffffffffffff1673ffffffffffffffffffffffffffffffffffffffff1673ffffffffffffffffffffffffffffffffffffffff1681526020016007820160149054906101000a900460ff16151515158152505090506000610cb3868360c001516101cd565b90506000610cc5878460a001516101cd565b90506002600088815260200190815260200160002060008082016000905560018201600090556002820160009055600382016000905560048201600090556005820160006101000a81549073ffffffffffffffffffffffffffffffffffffffff02191690556006820160006101000a81549073ffffffffffffffffffffffffffffffffffffffff02191690556007820160006101000a81549073ffffffffffffffffffffffffffffffffffffffff02191690556007820160146101000a81549060ff0219169055505060008360e0015190506000821115610dd057610dcf8460a00151838373ffffffffffffffffffffffffffffffffffffffff166122c49092919063ffffffff16565b5b6000831115610e0957610e088460c00151848373ffffffffffffffffffffffffffffffffffffffff166122c49092919063ffffffff16565b5b8360a0015173ffffffffffffffffffffffffffffffffffffffff168460c0015173ffffffffffffffffffffffffffffffffffffffff16897fca3e6079b726e7728802a0537949e2d1c7762304fa641fb06eb56daf2ba8c6b98686604051610e7192919061324e565b60405180910390a4600196505050505050506001600081905550919050565b600060026000541415610ed8576040517f08c379a0000000000000000000000000000000000000000000000000000000008152600401610ecf906131ae565b60405180910390fd5b6002600081905550826002600082815260200190815260200160002060070160149054906101000a900460ff16610f44576040517f08c379a0000000000000000000000000000000000000000000000000000000008152600401610f3b9061300e565b60405180910390fd5b836002600082815260200190815260200160002060060160009054906101000a900473ffffffffffffffffffffffffffffffffffffffff1673ffffffffffffffffffffffffffffffffffffffff163373ffffffffffffffffffffffffffffffffffffffff16148061101657506002600082815260200190815260200160002060050160009054906101000a900473ffffffffffffffffffffffffffffffffffffffff1673ffffffffffffffffffffffffffffffffffffffff163373ffffffffffffffffffffffffffffffffffffffff16145b611055576040517f08c379a000000000000000000000000000000000000000000000000000000000815260040161104c9061314e565b60405180910390fd5b60008411611098576040517f08c379a000000000000000000000000000000000000000000000000000000000815260040161108f90612fce565b60405180910390fd5b6000600260008781526020019081526020016000206040518061012001604052908160008201548152602001600182015481526020016002820154815260200160038201548152602001600482015481526020016005820160009054906101000a900473ffffffffffffffffffffffffffffffffffffffff1673ffffffffffffffffffffffffffffffffffffffff1673ffffffffffffffffffffffffffffffffffffffff1681526020016006820160009054906101000a900473ffffffffffffffffffffffffffffffffffffffff1673ffffffffffffffffffffffffffffffffffffffff1673ffffffffffffffffffffffffffffffffffffffff1681526020016007820160009054906101000a900473ffffffffffffffffffffffffffffffffffffffff1673ffffffffffffffffffffffffffffffffffffffff1673ffffffffffffffffffffffffffffffffffffffff1681526020016007820160149054906101000a900460ff1615151515815250509050600061121a878360a001516101cd565b90508581101561125f576040517f08c379a000000000000000000000000000000000000000000000000000000000815260040161125690612fee565b60405180910390fd5b600061126f836040015188612293565b600260008b8152602001908152602001600020600201600082919050558192505050600060038111156112cb577f4e487b7100000000000000000000000000000000000000000000000000000000600052602160045260246000fd5b816003811115611304577f4e487b7100000000000000000000000000000000000000000000000000000000600052602160045260246000fd5b14611338577f4e487b7100000000000000000000000000000000000000000000000000000000600052600160045260246000fd5b6000600260008a815260200190815260200160002060020154141561141f576002600089815260200190815260200160002060008082016000905560018201600090556002820160009055600382016000905560048201600090556005820160006101000a81549073ffffffffffffffffffffffffffffffffffffffff02191690556006820160006101000a81549073ffffffffffffffffffffffffffffffffffffffff02191690556007820160006101000a81549073ffffffffffffffffffffffffffffffffffffffff02191690556007820160146101000a81549060ff021916905550505b8260e0015173ffffffffffffffffffffffffffffffffffffffff1663a9059cbb8460a00151896040518363ffffffff1660e01b8152600401611462929190612f48565b602060405180830381600087803b15801561147c57600080fd5b505af1158015611490573d6000803e3d6000fd5b505050506040513d601f19601f820116820180604052508101906114b49190612791565b508260a0015173ffffffffffffffffffffffffffffffffffffffff16887f36c3ab437e6a424ed25dc4bfdeb62706aa06558660fab2dab229d2555adaf89c8960405161150091906131ee565b60405180910390a3600195505050505050600160008190555092915050565b600080600080600080600080886002600082815260200190815260200160002060070160149054906101000a900460ff1661158f576040517f08c379a00000000000000000000000000000000000000000000000000000000081526004016115869061300e565b60405180910390fd5b600260008b815260200190815260200160002060060160009054906101000a900473ffffffffffffffffffffffffffffffffffffffff169850600260008b815260200190815260200160002060050160009054906101000a900473ffffffffffffffffffffffffffffffffffffffff169750600260008b8152602001908152602001600020600001549650600260008b815260200190815260200160002060070160009054906101000a900473ffffffffffffffffffffffffffffffffffffffff169550600260008b8152602001908152602001600020600301549450600260008b8152602001908152602001600020600401549350600260008b8152602001908152602001600020600201549250600260008b815260200190815260200160002060010154915050919395975091939597565b6000816002600082815260200190815260200160002060070160149054906101000a900460ff16611729576040517f08c379a00000000000000000000000000000000000000000000000000000000081526004016117209061300e565b60405180910390fd5b6000600260008581526020019081526020016000206040518061012001604052908160008201548152602001600182015481526020016002820154815260200160038201548152602001600482015481526020016005820160009054906101000a900473ffffffffffffffffffffffffffffffffffffffff1673ffffffffffffffffffffffffffffffffffffffff1673ffffffffffffffffffffffffffffffffffffffff1681526020016006820160009054906101000a900473ffffffffffffffffffffffffffffffffffffffff1673ffffffffffffffffffffffffffffffffffffffff1673ffffffffffffffffffffffffffffffffffffffff1681526020016007820160009054906101000a900473ffffffffffffffffffffffffffffffffffffffff1673ffffffffffffffffffffffffffffffffffffffff1673ffffffffffffffffffffffffffffffffffffffff1681526020016007820160149054906101000a900460ff1615151515815250509050806060015142116118b05760009250506118ec565b80608001514210156118d4578060600151426118cc919061338a565b9250506118ec565b806060015181608001516118e8919061338a565b9250505b50919050565b60008073ffffffffffffffffffffffffffffffffffffffff168673ffffffffffffffffffffffffffffffffffffffff161415611963576040517f08c379a000000000000000000000000000000000000000000000000000000000815260040161195a90612fae565b60405180910390fd5b3073ffffffffffffffffffffffffffffffffffffffff168673ffffffffffffffffffffffffffffffffffffffff1614156119d2576040517f08c379a00000000000000000000000000000000000000000000000000000000081526004016119c9906130ee565b60405180910390fd5b3373ffffffffffffffffffffffffffffffffffffffff168673ffffffffffffffffffffffffffffffffffffffff161415611a41576040517f08c379a0000000000000000000000000000000000000000000000000000000008152600401611a38906130ae565b60405180910390fd5b60008511611a84576040517f08c379a0000000000000000000000000000000000000000000000000000000008152600401611a7b9061306e565b60405180910390fd5b42831015611ac7576040517f08c379a0000000000000000000000000000000000000000000000000000000008152600401611abe9061304e565b60405180910390fd5b828211611b09576040517f08c379a0000000000000000000000000000000000000000000000000000000008152600401611b00906131ce565b60405180910390fd5b611b11612682565b611b1b8385612293565b826000018360200182815250826003811115611b60577f4e487b7100000000000000000000000000000000000000000000000000000000600052602160045260246000fd5b6003811115611b98577f4e487b7100000000000000000000000000000000000000000000000000000000600052602160045260246000fd5b815250505060006003811115611bd7577f4e487b7100000000000000000000000000000000000000000000000000000000600052602160045260246000fd5b81600001516003811115611c14577f4e487b7100000000000000000000000000000000000000000000000000000000600052602160045260246000fd5b14611c48577f4e487b7100000000000000000000000000000000000000000000000000000000600052600160045260246000fd5b8060200151861015611c8f576040517f08c379a0000000000000000000000000000000000000000000000000000000008152600401611c869061318e565b60405180910390fd5b6000816020015187611ca19190613439565b14611ce1576040517f08c379a0000000000000000000000000000000000000000000000000000000008152600401611cd89061308e565b60405180910390fd5b611cef86826020015161234a565b826000018360400182815250826003811115611d34577f4e487b7100000000000000000000000000000000000000000000000000000000600052602160045260246000fd5b6003811115611d6c577f4e487b7100000000000000000000000000000000000000000000000000000000600052602160045260246000fd5b815250505060006003811115611dab577f4e487b7100000000000000000000000000000000000000000000000000000000600052602160045260246000fd5b81600001516003811115611de8577f4e487b7100000000000000000000000000000000000000000000000000000000600052602160045260246000fd5b14611e1c577f4e487b7100000000000000000000000000000000000000000000000000000000600052600160045260246000fd5b60006001549050604051806101200160405280888152602001836040015181526020018881526020018681526020018581526020018973ffffffffffffffffffffffffffffffffffffffff1681526020013373ffffffffffffffffffffffffffffffffffffffff1681526020018773ffffffffffffffffffffffffffffffffffffffff1681526020016001151581525060026000838152602001908152602001600020600082015181600001556020820151816001015560408201518160020155606082015181600301556080820151816004015560a08201518160050160006101000a81548173ffffffffffffffffffffffffffffffffffffffff021916908373ffffffffffffffffffffffffffffffffffffffff16021790555060c08201518160060160006101000a81548173ffffffffffffffffffffffffffffffffffffffff021916908373ffffffffffffffffffffffffffffffffffffffff16021790555060e08201518160070160006101000a81548173ffffffffffffffffffffffffffffffffffffffff021916908373ffffffffffffffffffffffffffffffffffffffff1602179055506101008201518160070160146101000a81548160ff021916908315150217905550905050611ff7600154600161237d565b8360000160016000839190505582600381111561203d577f4e487b7100000000000000000000000000000000000000000000000000000000600052602160045260246000fd5b6003811115612075577f4e487b7100000000000000000000000000000000000000000000000000000000600052602160045260246000fd5b8152505050600060038111156120b4577f4e487b7100000000000000000000000000000000000000000000000000000000600052602160045260246000fd5b826000015160038111156120f1577f4e487b7100000000000000000000000000000000000000000000000000000000600052602160045260246000fd5b14612131576040517f08c379a0000000000000000000000000000000000000000000000000000000008152600401612128906130ce565b60405180910390fd5b8573ffffffffffffffffffffffffffffffffffffffff166323b872dd33308a6040518463ffffffff1660e01b815260040161216e93929190612e93565b602060405180830381600087803b15801561218857600080fd5b505af115801561219c573d6000803e3d6000fd5b505050506040513d601f19601f820116820180604052508101906121c09190612791565b508773ffffffffffffffffffffffffffffffffffffffff163373ffffffffffffffffffffffffffffffffffffffff16827f7b01d409597969366dc268d7f957a990d1ca3d3449baf8fb45db67351aecfe788a8a8a8a6040516122259493929190613209565b60405180910390a4809250505095945050505050565b6000806000841415612253576000809150915061228c565b600083856122619190613330565b905083858261227091906132ff565b146122835760026000925092505061228c565b60008192509250505b9250929050565b6000808383116122b457600083856122ab919061338a565b915091506122bd565b60036000915091505b9250929050565b6123458363a9059cbb60e01b84846040516024016122e3929190612f48565b604051602081830303815290604052907bffffffffffffffffffffffffffffffffffffffffffffffffffffffff19166020820180517bffffffffffffffffffffffffffffffffffffffffffffffffffffffff83818316178352505050506123b5565b505050565b6000806000831415612363576001600091509150612376565b6000838561237191906132ff565b915091505b9250929050565b6000806000838561238e91906132a9565b90508481106123a45760008192509250506123ae565b6002600092509250505b9250929050565b6000612417826040518060400160405280602081526020017f5361666545524332303a206c6f772d6c6576656c2063616c6c206661696c65648152508573ffffffffffffffffffffffffffffffffffffffff1661247c9092919063ffffffff16565b905060008151111561247757808060200190518101906124379190612791565b612476576040517f08c379a000000000000000000000000000000000000000000000000000000000815260040161246d9061316e565b60405180910390fd5b5b505050565b606061248b8484600085612494565b90509392505050565b6060824710156124d9576040517f08c379a00000000000000000000000000000000000000000000000000000000081526004016124d09061302e565b60405180910390fd5b6124e2856125a8565b612521576040517f08c379a00000000000000000000000000000000000000000000000000000000081526004016125189061312e565b60405180910390fd5b6000808673ffffffffffffffffffffffffffffffffffffffff16858760405161254a9190612e7c565b60006040518083038185875af1925050503d8060008114612587576040519150601f19603f3d011682016040523d82523d6000602084013e61258c565b606091505b509150915061259c8282866125bb565b92505050949350505050565b600080823b905060008111915050919050565b606083156125cb5782905061261b565b6000835111156125de5782518084602001fd5b816040517f08c379a00000000000000000000000000000000000000000000000000000000081526004016126129190612f8c565b60405180910390fd5b9392505050565b604051806080016040528060006003811115612667577f4e487b7100000000000000000000000000000000000000000000000000000000600052602160045260246000fd5b81526020016000815260200160008152602001600081525090565b6040518060600160405280600060038111156126c7577f4e487b7100000000000000000000000000000000000000000000000000000000600052602160045260246000fd5b815260200160008152602001600081525090565b6000813590506126ea816134d9565b92915050565b6000815190506126ff816134f0565b92915050565b60008135905061271481613507565b92915050565b600080600080600060a0868803121561273257600080fd5b6000612740888289016126db565b955050602061275188828901612705565b9450506040612762888289016126db565b935050606061277388828901612705565b925050608061278488828901612705565b9150509295509295909350565b6000602082840312156127a357600080fd5b60006127b1848285016126f0565b91505092915050565b6000602082840312156127cc57600080fd5b60006127da84828501612705565b91505092915050565b600080604083850312156127f657600080fd5b600061280485828601612705565b9250506020612815858286016126db565b9150509250929050565b6000806040838503121561283257600080fd5b600061284085828601612705565b925050602061285185828601612705565b9150509250929050565b612864816133be565b82525050565b612873816133d0565b82525050565b600061288482613277565b61288e818561328d565b935061289e818560208601613406565b80840191505092915050565b60006128b582613282565b6128bf8185613298565b93506128cf818560208601613406565b6128d8816134c8565b840191505092915050565b60006128f0601a83613298565b91507f73747265616d20746f20746865207a65726f20616464726573730000000000006000830152602082019050919050565b6000612930600e83613298565b91507f616d6f756e74206973207a65726f0000000000000000000000000000000000006000830152602082019050919050565b6000612970602483613298565b91507f616d6f756e7420657863656564732074686520617661696c61626c652062616c60008301527f616e6365000000000000000000000000000000000000000000000000000000006020830152604082019050919050565b60006129d6601583613298565b91507f73747265616d20646f6573206e6f7420657869737400000000000000000000006000830152602082019050919050565b6000612a16602683613298565b91507f416464726573733a20696e73756666696369656e742062616c616e636520666f60008301527f722063616c6c00000000000000000000000000000000000000000000000000006020830152604082019050919050565b6000612a7c602183613298565b91507f73746172742074696d65206265666f726520626c6f636b2e74696d657374616d60008301527f70000000000000000000000000000000000000000000000000000000000000006020830152604082019050919050565b6000612ae2600f83613298565b91507f6465706f736974206973207a65726f00000000000000000000000000000000006000830152602082019050919050565b6000612b22602283613298565b91507f6465706f736974206e6f74206d756c7469706c65206f662074696d652064656c60008301527f74610000000000000000000000000000000000000000000000000000000000006020830152604082019050919050565b6000612b88601483613298565b91507f73747265616d20746f207468652063616c6c65720000000000000000000000006000830152602082019050919050565b6000612bc8602083613298565b91507f6e6578742073747265616d2069642063616c63756c6174696f6e206572726f726000830152602082019050919050565b6000612c08601d83613298565b91507f73747265616d20746f2074686520636f6e747261637420697473656c660000006000830152602082019050919050565b6000612c48602383613298565b91507f726563697069656e742062616c616e63652063616c63756c6174696f6e20657260008301527f726f7200000000000000000000000000000000000000000000000000000000006020830152604082019050919050565b6000612cae601d83613298565b91507f416464726573733a2063616c6c20746f206e6f6e2d636f6e74726163740000006000830152602082019050919050565b6000612cee603783613298565b91507f63616c6c6572206973206e6f74207468652073656e646572206f72207468652060008301527f726563697069656e74206f66207468652073747265616d0000000000000000006020830152604082019050919050565b6000612d54602a83613298565b91507f5361666545524332303a204552433230206f7065726174696f6e20646964206e60008301527f6f742073756363656564000000000000000000000000000000000000000000006020830152604082019050919050565b6000612dba601f83613298565b91507f6465706f73697420736d616c6c6572207468616e2074696d652064656c7461006000830152602082019050919050565b6000612dfa601f83613298565b91507f5265656e7472616e637947756172643a207265656e7472616e742063616c6c006000830152602082019050919050565b6000612e3a601f83613298565b91507f73746f702074696d65206265666f7265207468652073746172742074696d65006000830152602082019050919050565b612e76816133fc565b82525050565b6000612e888284612879565b915081905092915050565b6000606082019050612ea8600083018661285b565b612eb5602083018561285b565b612ec26040830184612e6d565b949350505050565b600061010082019050612ee0600083018b61285b565b612eed602083018a61285b565b612efa6040830189612e6d565b612f07606083018861285b565b612f146080830187612e6d565b612f2160a0830186612e6d565b612f2e60c0830185612e6d565b612f3b60e0830184612e6d565b9998505050505050505050565b6000604082019050612f5d600083018561285b565b612f6a6020830184612e6d565b9392505050565b6000602082019050612f86600083018461286a565b92915050565b60006020820190508181036000830152612fa681846128aa565b905092915050565b60006020820190508181036000830152612fc7816128e3565b9050919050565b60006020820190508181036000830152612fe781612923565b9050919050565b6000602082019050818103600083015261300781612963565b9050919050565b60006020820190508181036000830152613027816129c9565b9050919050565b6000602082019050818103600083015261304781612a09565b9050919050565b6000602082019050818103600083015261306781612a6f565b9050919050565b6000602082019050818103600083015261308781612ad5565b9050919050565b600060208201905081810360008301526130a781612b15565b9050919050565b600060208201905081810360008301526130c781612b7b565b9050919050565b600060208201905081810360008301526130e781612bbb565b9050919050565b6000602082019050818103600083015261310781612bfb565b9050919050565b6000602082019050818103600083015261312781612c3b565b9050919050565b6000602082019050818103600083015261314781612ca1565b9050919050565b6000602082019050818103600083015261316781612ce1565b9050919050565b6000602082019050818103600083015261318781612d47565b9050919050565b600060208201905081810360008301526131a781612dad565b9050919050565b600060208201905081810360008301526131c781612ded565b9050919050565b600060208201905081810360008301526131e781612e2d565b9050919050565b60006020820190506132036000830184612e6d565b92915050565b600060808201905061321e6000830187612e6d565b61322b602083018661285b565b6132386040830185612e6d565b6132456060830184612e6d565b95945050505050565b60006040820190506132636000830185612e6d565b6132706020830184612e6d565b9392505050565b600081519050919050565b600081519050919050565b600081905092915050565b600082825260208201905092915050565b60006132b4826133fc565b91506132bf836133fc565b9250827fffffffffffffffffffffffffffffffffffffffffffffffffffffffffffffffff038211156132f4576132f361346a565b5b828201905092915050565b600061330a826133fc565b9150613315836133fc565b92508261332557613324613499565b5b828204905092915050565b600061333b826133fc565b9150613346836133fc565b9250817fffffffffffffffffffffffffffffffffffffffffffffffffffffffffffffffff048311821515161561337f5761337e61346a565b5b828202905092915050565b6000613395826133fc565b91506133a0836133fc565b9250828210156133b3576133b261346a565b5b828203905092915050565b60006133c9826133dc565b9050919050565b60008115159050919050565b600073ffffffffffffffffffffffffffffffffffffffff82169050919050565b6000819050919050565b60005b83811015613424578082015181840152602081019050613409565b83811115613433576000848401525b50505050565b6000613444826133fc565b915061344f836133fc565b92508261345f5761345e613499565b5b828206905092915050565b7f4e487b7100000000000000000000000000000000000000000000000000000000600052601160045260246000fd5b7f4e487b7100000000000000000000000000000000000000000000000000000000600052601260045260246000fd5b6000601f19601f8301169050919050565b6134e2816133be565b81146134ed57600080fd5b50565b6134f9816133d0565b811461350457600080fd5b50565b613510816133fc565b811461351b57600080fd5b5056fea2646970667358221220781c6b57325727efd41ef41a74d4cd3066e2ffbe6cffff32fd08bc5276bc428f64736f6c63430008000033",
    "linkReferences": {},
    "deployedLinkReferences": {}
}