{
  "contractName": "EvilERC20",
  "abi": [
    {
      "inputs": [],
      "payable": false,
      "stateMutability": "nonpayable",
      "type": "constructor"
    },
    {
      "anonymous": false,
      "inputs": [
        {
          "indexed": true,
          "internalType": "address",
          "name": "owner",
          "type": "address"
        },
        {
          "indexed": true,
          "internalType": "address",
          "name": "spender",
          "type": "address"
        },
        {
          "indexed": false,
          "internalType": "uint256",
          "name": "value",
          "type": "uint256"
        }
      ],
      "name": "Approval",
      "type": "event"
    },
    {
      "anonymous": false,
      "inputs": [
        {
          "indexed": true,
          "internalType": "address",
          "name": "from",
          "type": "address"
        },
        {
          "indexed": true,
          "internalType": "address",
          "name": "to",
          "type": "address"
        },
        {
          "indexed": false,
          "internalType": "uint256",
          "name": "value",
          "type": "uint256"
        }
      ],
      "name": "Transfer",
      "type": "event"
    },
    {
      "constant": true,
      "inputs": [
        {
          "internalType": "address",
          "name": "owner",
          "type": "address"
        },
        {
          "internalType": "address",
          "name": "spender",
          "type": "address"
        }
      ],
      "name": "allowance",
      "outputs": [
        {
          "internalType": "uint256",
          "name": "",
          "type": "uint256"
        }
      ],
      "payable": false,
      "stateMutability": "view",
      "type": "function"
    },
    {
      "constant": false,
      "inputs": [
        {
          "internalType": "address",
          "name": "spender",
          "type": "address"
        },
        {
          "internalType": "uint256",
          "name": "amount",
          "type": "uint256"
        }
      ],
      "name": "approve",
      "outputs": [
        {
          "internalType": "bool",
          "name": "",
          "type": "bool"
        }
      ],
      "payable": false,
      "stateMutability": "nonpayable",
      "type": "function"
    },
    {
      "constant": true,
      "inputs": [
        {
          "internalType": "address",
          "name": "account",
          "type": "address"
        }
      ],
      "name": "balanceOf",
      "outputs": [
        {
          "internalType": "uint256",
          "name": "",
          "type": "uint256"
        }
      ],
      "payable": false,
      "stateMutability": "view",
      "type": "function"
    },
    {
      "constant": false,
      "inputs": [
        {
          "internalType": "address",
          "name": "spender",
          "type": "address"
        },
        {
          "internalType": "uint256",
          "name": "subtractedValue",
          "type": "uint256"
        }
      ],
      "name": "decreaseAllowance",
      "outputs": [
        {
          "internalType": "bool",
          "name": "",
          "type": "bool"
        }
      ],
      "payable": false,
      "stateMutability": "nonpayable",
      "type": "function"
    },
    {
      "constant": false,
      "inputs": [
        {
          "internalType": "address",
          "name": "spender",
          "type": "address"
        },
        {
          "internalType": "uint256",
          "name": "addedValue",
          "type": "uint256"
        }
      ],
      "name": "increaseAllowance",
      "outputs": [
        {
          "internalType": "bool",
          "name": "",
          "type": "bool"
        }
      ],
      "payable": false,
      "stateMutability": "nonpayable",
      "type": "function"
    },
    {
      "constant": true,
      "inputs": [],
      "name": "totalSupply",
      "outputs": [
        {
          "internalType": "uint256",
          "name": "",
          "type": "uint256"
        }
      ],
      "payable": false,
      "stateMutability": "view",
      "type": "function"
    },
    {
      "constant": false,
      "inputs": [
        {
          "internalType": "bool",
          "name": "value",
          "type": "bool"
        }
      ],
      "name": "setShouldDisableTransfer",
      "outputs": [],
      "payable": false,
      "stateMutability": "nonpayable",
      "type": "function"
    },
    {
      "constant": false,
      "inputs": [
        {
          "internalType": "bool",
          "name": "value",
          "type": "bool"
        }
      ],
      "name": "setShouldDisableTransferFrom",
      "outputs": [],
      "payable": false,
      "stateMutability": "nonpayable",
      "type": "function"
    },
    {
      "constant": false,
      "inputs": [
        {
          "internalType": "address",
          "name": "to",
          "type": "address"
        },
        {
          "internalType": "uint256",
          "name": "value",
          "type": "uint256"
        }
      ],
      "name": "transfer",
      "outputs": [
        {
          "internalType": "bool",
          "name": "",
          "type": "bool"
        }
      ],
      "payable": false,
      "stateMutability": "nonpayable",
      "type": "function"
    },
    {
      "constant": false,
      "inputs": [
        {
          "internalType": "address",
          "name": "from",
          "type": "address"
        },
        {
          "internalType": "address",
          "name": "to",
          "type": "address"
        },
        {
          "internalType": "uint256",
          "name": "value",
          "type": "uint256"
        }
      ],
      "name": "transferFrom",
      "outputs": [
        {
          "internalType": "bool",
          "name": "",
          "type": "bool"
        }
      ],
      "payable": false,
      "stateMutability": "nonpayable",
      "type": "function"
    },
    {
      "constant": false,
      "inputs": [
        {
          "internalType": "address",
          "name": "to",
          "type": "address"
        },
        {
          "internalType": "uint256",
          "name": "amount",
          "type": "uint256"
        }
      ],
      "name": "mint",
      "outputs": [],
      "payable": false,
      "stateMutability": "nonpayable",
      "type": "function"
    }
  ],
  "bytecode": "0x608060405234801561001057600080fd5b506003805461ffff19169055610a398061002b6000396000f3fe608060405234801561001057600080fd5b50600436106100a95760003560e01c806340c10f191161007157806340c10f191461018b57806367f27088146101b757806370a08231146101d6578063a457c2d7146101fc578063a9059cbb14610228578063dd62ed3e14610254576100a9565b8063095ea7b3146100ae57806318160ddd146100ee57806323b872dd14610108578063395093511461013e5780633e38eaa91461016a575b600080fd5b6100da600480360360408110156100c457600080fd5b506001600160a01b038135169060200135610282565b604080519115158252519081900360200190f35b6100f66102a0565b60408051918252519081900360200190f35b6100da6004803603606081101561011e57600080fd5b506001600160a01b038135811691602081013590911690604001356102a6565b6100da6004803603604081101561015457600080fd5b506001600160a01b0381351690602001356102d6565b6101896004803603602081101561018057600080fd5b5035151561032f565b005b610189600480360360408110156101a157600080fd5b506001600160a01b038135169060200135610342565b610189600480360360208110156101cd57600080fd5b50351515610350565b6100f6600480360360208110156101ec57600080fd5b50356001600160a01b031661036a565b6100da6004803603604081101561021257600080fd5b506001600160a01b038135169060200135610385565b6100da6004803603604081101561023e57600080fd5b506001600160a01b0381351690602001356103f3565b6100f66004803603604081101561026a57600080fd5b506001600160a01b0381358116916020013516610413565b600061029661028f61043e565b8484610442565b5060015b92915050565b60025490565b600354600090610100900460ff16156102c1575060006102cf565b6102cc84848461052e565b90505b9392505050565b60006102966102e361043e565b8461032a85600160006102f461043e565b6001600160a01b03908116825260208083019390935260409182016000908120918c16815292529020549063ffffffff6105b616565b610442565b6003805460ff1916911515919091179055565b61034c8282610610565b5050565b600380549115156101000261ff0019909216919091179055565b6001600160a01b031660009081526020819052604090205490565b600061029661039261043e565b8461032a856040518060600160405280602581526020016109e060259139600160006103bc61043e565b6001600160a01b03908116825260208083019390935260409182016000908120918d1681529252902054919063ffffffff61070016565b60035460009060ff16156104095750600061029a565b6102cf8383610797565b6001600160a01b03918216600090815260016020908152604080832093909416825291909152205490565b3390565b6001600160a01b0383166104875760405162461bcd60e51b81526004018080602001828103825260248152602001806109bc6024913960400191505060405180910390fd5b6001600160a01b0382166104cc5760405162461bcd60e51b81526004018080602001828103825260228152602001806109276022913960400191505060405180910390fd5b6001600160a01b03808416600081815260016020908152604080832094871680845294825291829020859055815185815291517f8c5be1e5ebec7d5bd14f71427d1e84f3dd0314c0f7b2291e5b200ac8c7c3b9259281900390910190a3505050565b600061053b8484846107a7565b6105ac8461054761043e565b61032a8560405180606001604052806028815260200161096f602891396001600160a01b038a1660009081526001602052604081209061058561043e565b6001600160a01b03168152602081019190915260400160002054919063ffffffff61070016565b5060019392505050565b6000828201838110156102cf576040805162461bcd60e51b815260206004820152601b60248201527f536166654d6174683a206164646974696f6e206f766572666c6f770000000000604482015290519081900360640190fd5b6001600160a01b03821661066b576040805162461bcd60e51b815260206004820152601f60248201527f45524332303a206d696e7420746f20746865207a65726f206164647265737300604482015290519081900360640190fd5b60025461067e908263ffffffff6105b616565b6002556001600160a01b0382166000908152602081905260409020546106aa908263ffffffff6105b616565b6001600160a01b0383166000818152602081815260408083209490945583518581529351929391927fddf252ad1be2c89b69c2b068fc378daa952ba7f163c4a11628f55a4df523b3ef9281900390910190a35050565b6000818484111561078f5760405162461bcd60e51b81526004018080602001828103825283818151815260200191508051906020019080838360005b8381101561075457818101518382015260200161073c565b50505050905090810190601f1680156107815780820380516001836020036101000a031916815260200191505b509250505060405180910390fd5b505050900390565b60006102966107a461043e565b84845b6001600160a01b0383166107ec5760405162461bcd60e51b81526004018080602001828103825260258152602001806109976025913960400191505060405180910390fd5b6001600160a01b0382166108315760405162461bcd60e51b81526004018080602001828103825260238152602001806109046023913960400191505060405180910390fd5b61087481604051806060016040528060268152602001610949602691396001600160a01b038616600090815260208190526040902054919063ffffffff61070016565b6001600160a01b0380851660009081526020819052604080822093909355908416815220546108a9908263ffffffff6105b616565b6001600160a01b038084166000818152602081815260409182902094909455805185815290519193928716927fddf252ad1be2c89b69c2b068fc378daa952ba7f163c4a11628f55a4df523b3ef92918290030190a350505056fe45524332303a207472616e7366657220746f20746865207a65726f206164647265737345524332303a20617070726f766520746f20746865207a65726f206164647265737345524332303a207472616e7366657220616d6f756e7420657863656564732062616c616e636545524332303a207472616e7366657220616d6f756e74206578636565647320616c6c6f77616e636545524332303a207472616e736665722066726f6d20746865207a65726f206164647265737345524332303a20617070726f76652066726f6d20746865207a65726f206164647265737345524332303a2064656372656173656420616c6c6f77616e63652062656c6f77207a65726fa265627a7a723158205006c44440d90683be4a77bc5b1ff74fb9129bce21f35bc1e349f9ae563c535664736f6c63430005110032",
  "source": "pragma solidity =0.5.17;\r\n\r\nimport \"@openzeppelin/contracts/token/ERC20/ERC20.sol\";\r\n\r\n/// @dev Mock class using ERC20\r\n/// @author Sablier\r\n\r\ncontract EvilERC20 is ERC20 {\r\n    bool shouldDisableTransfer;\r\n    bool shouldDisableTransferFrom;\r\n\r\n    constructor() public {\r\n        shouldDisableTransfer = false;\r\n        shouldDisableTransferFrom = false;\r\n    }\r\n\r\n    function setShouldDisableTransfer(bool value) external {\r\n        shouldDisableTransfer = value;\r\n    }\r\n\r\n    function setShouldDisableTransferFrom(bool value) external {\r\n        shouldDisableTransferFrom = value;\r\n    }\r\n\r\n    /**\r\n     * @dev Transfers token to a specified address, unless `shouldDisableTransfer` is `true`.\r\n     * @param to The address to transfer to.\r\n     * @param value The amount to be transferred.\r\n     */\r\n    function transfer(address to, uint256 value) public returns (bool) {\r\n        if (shouldDisableTransfer) {\r\n            return false;\r\n        }\r\n        return super.transfer(to, value);\r\n    }\r\n\r\n    /**\r\n     * @dev Transfer tokens from one address to another unless `shouldDisableTransferFrom` is `true`.\r\n     * @param from address The address which you want to send tokens from\r\n     * @param to address The address which you want to transfer to\r\n     * @param value uint256 the amount of tokens to be transferred\r\n     */\r\n    function transferFrom(address from, address to, uint256 value) public returns (bool) {\r\n        if (shouldDisableTransferFrom) {\r\n            return false;\r\n        }\r\n        return super.transferFrom(from, to, value);\r\n    }\r\n\r\n    /**\r\n     * @dev Allows anyone to mint tokens to any address\r\n     * @param to The address that will receive the minted tokens.\r\n     * @param amount The amount of tokens to mint.\r\n     * @return A boolean that indicates if the operation was successful.\r\n     */\r\n    function mint(address to, uint256 amount) public {\r\n        _mint(to, amount);\r\n    }\r\n}\r\n",
  "sourcePath": "@sablier\\shared-contracts\\test\\EvilERC20.sol",
  "compiler": {
    "name": "solc",
    "version": "0.5.17+commit.d19bba13.Emscripten.clang"
  },
  "schemaVersion": "3.4.3",
  "updatedAt": "2021-09-18T06:41:32.772Z",
  "devdoc": {
    "author": "Sablier",
    "details": "Mock class using ERC20",
    "methods": {
      "allowance(address,address)": {
        "details": "See {IERC20-allowance}."
      },
      "approve(address,uint256)": {
        "details": "See {IERC20-approve}.     * Requirements:     * - `spender` cannot be the zero address."
      },
      "balanceOf(address)": {
        "details": "See {IERC20-balanceOf}."
      },
      "decreaseAllowance(address,uint256)": {
        "details": "Atomically decreases the allowance granted to `spender` by the caller.     * This is an alternative to {approve} that can be used as a mitigation for problems described in {IERC20-approve}.     * Emits an {Approval} event indicating the updated allowance.     * Requirements:     * - `spender` cannot be the zero address. - `spender` must have allowance for the caller of at least `subtractedValue`."
      },
      "increaseAllowance(address,uint256)": {
        "details": "Atomically increases the allowance granted to `spender` by the caller.     * This is an alternative to {approve} that can be used as a mitigation for problems described in {IERC20-approve}.     * Emits an {Approval} event indicating the updated allowance.     * Requirements:     * - `spender` cannot be the zero address."
      },
      "mint(address,uint256)": {
        "details": "Allows anyone to mint tokens to any address",
        "params": {
          "amount": "The amount of tokens to mint.",
          "to": "The address that will receive the minted tokens."
        },
        "return": "A boolean that indicates if the operation was successful."
      },
      "totalSupply()": {
        "details": "See {IERC20-totalSupply}."
      },
      "transfer(address,uint256)": {
        "details": "Transfers token to a specified address, unless `shouldDisableTransfer` is `true`.",
        "params": {
          "to": "The address to transfer to.",
          "value": "The amount to be transferred."
        }
      },
      "transferFrom(address,address,uint256)": {
        "details": "Transfer tokens from one address to another unless `shouldDisableTransferFrom` is `true`.",
        "params": {
          "from": "address The address which you want to send tokens from",
          "to": "address The address which you want to transfer to",
          "value": "uint256 the amount of tokens to be transferred"
        }
      }
    }
  },
  "userdoc": {
    "methods": {}
  }
}