{
  "contractName": "NonStandardERC20",
  "abi": [
    {
      "anonymous": false,
      "inputs": [
        {
          "indexed": true,
          "internalType": "address",
          "name": "owner",
          "type": "address"
        },
        {
          "indexed": true,
          "internalType": "address",
          "name": "spender",
          "type": "address"
        },
        {
          "indexed": false,
          "internalType": "uint256",
          "name": "value",
          "type": "uint256"
        }
      ],
      "name": "Approval",
      "type": "event"
    },
    {
      "anonymous": false,
      "inputs": [
        {
          "indexed": true,
          "internalType": "address",
          "name": "from",
          "type": "address"
        },
        {
          "indexed": true,
          "internalType": "address",
          "name": "to",
          "type": "address"
        },
        {
          "indexed": false,
          "internalType": "uint256",
          "name": "value",
          "type": "uint256"
        }
      ],
      "name": "Transfer",
      "type": "event"
    },
    {
      "constant": true,
      "inputs": [],
      "name": "totalSupply",
      "outputs": [
        {
          "internalType": "uint256",
          "name": "",
          "type": "uint256"
        }
      ],
      "payable": false,
      "stateMutability": "view",
      "type": "function"
    },
    {
      "constant": true,
      "inputs": [
        {
          "internalType": "address",
          "name": "account",
          "type": "address"
        }
      ],
      "name": "balanceOf",
      "outputs": [
        {
          "internalType": "uint256",
          "name": "",
          "type": "uint256"
        }
      ],
      "payable": false,
      "stateMutability": "view",
      "type": "function"
    },
    {
      "constant": false,
      "inputs": [
        {
          "internalType": "address",
          "name": "recipient",
          "type": "address"
        },
        {
          "internalType": "uint256",
          "name": "amount",
          "type": "uint256"
        }
      ],
      "name": "transfer",
      "outputs": [],
      "payable": false,
      "stateMutability": "nonpayable",
      "type": "function"
    },
    {
      "constant": true,
      "inputs": [
        {
          "internalType": "address",
          "name": "owner",
          "type": "address"
        },
        {
          "internalType": "address",
          "name": "spender",
          "type": "address"
        }
      ],
      "name": "allowance",
      "outputs": [
        {
          "internalType": "uint256",
          "name": "",
          "type": "uint256"
        }
      ],
      "payable": false,
      "stateMutability": "view",
      "type": "function"
    },
    {
      "constant": false,
      "inputs": [
        {
          "internalType": "address",
          "name": "spender",
          "type": "address"
        },
        {
          "internalType": "uint256",
          "name": "value",
          "type": "uint256"
        }
      ],
      "name": "approve",
      "outputs": [
        {
          "internalType": "bool",
          "name": "",
          "type": "bool"
        }
      ],
      "payable": false,
      "stateMutability": "nonpayable",
      "type": "function"
    },
    {
      "constant": false,
      "inputs": [
        {
          "internalType": "address",
          "name": "sender",
          "type": "address"
        },
        {
          "internalType": "address",
          "name": "recipient",
          "type": "address"
        },
        {
          "internalType": "uint256",
          "name": "amount",
          "type": "uint256"
        }
      ],
      "name": "transferFrom",
      "outputs": [],
      "payable": false,
      "stateMutability": "nonpayable",
      "type": "function"
    },
    {
      "constant": false,
      "inputs": [
        {
          "internalType": "address",
          "name": "spender",
          "type": "address"
        },
        {
          "internalType": "uint256",
          "name": "addedValue",
          "type": "uint256"
        }
      ],
      "name": "increaseAllowance",
      "outputs": [
        {
          "internalType": "bool",
          "name": "",
          "type": "bool"
        }
      ],
      "payable": false,
      "stateMutability": "nonpayable",
      "type": "function"
    },
    {
      "constant": false,
      "inputs": [
        {
          "internalType": "address",
          "name": "spender",
          "type": "address"
        },
        {
          "internalType": "uint256",
          "name": "subtractedValue",
          "type": "uint256"
        }
      ],
      "name": "decreaseAllowance",
      "outputs": [
        {
          "internalType": "bool",
          "name": "",
          "type": "bool"
        }
      ],
      "payable": false,
      "stateMutability": "nonpayable",
      "type": "function"
    },
    {
      "constant": false,
      "inputs": [
        {
          "internalType": "address",
          "name": "account",
          "type": "address"
        },
        {
          "internalType": "uint256",
          "name": "amount",
          "type": "uint256"
        }
      ],
      "name": "mint",
      "outputs": [],
      "payable": false,
      "stateMutability": "nonpayable",
      "type": "function"
    }
  ],
  "bytecode": "0x608060405234801561001057600080fd5b506108e2806100206000396000f3fe608060405234801561001057600080fd5b50600436106100935760003560e01c806340c10f191161006657806340c10f191461015657806370a0823114610182578063a457c2d7146101a8578063a9059cbb146101d4578063dd62ed3e1461020057610093565b8063095ea7b31461009857806318160ddd146100d857806323b872dd146100f2578063395093511461012a575b600080fd5b6100c4600480360360408110156100ae57600080fd5b506001600160a01b03813516906020013561022e565b604080519115158252519081900360200190f35b6100e0610244565b60408051918252519081900360200190f35b6101286004803603606081101561010857600080fd5b506001600160a01b0381358116916020810135909116906040013561024a565b005b6100c46004803603604081101561014057600080fd5b506001600160a01b03813516906020013561029a565b6101286004803603604081101561016c57600080fd5b506001600160a01b0381351690602001356102d6565b6100e06004803603602081101561019857600080fd5b50356001600160a01b03166102e4565b6100c4600480360360408110156101be57600080fd5b506001600160a01b0381351690602001356102ff565b610128600480360360408110156101ea57600080fd5b506001600160a01b03813516906020013561033b565b6100e06004803603604081101561021657600080fd5b506001600160a01b0381358116916020013516610346565b600061023b338484610371565b50600192915050565b60025490565b61025583838361045d565b6001600160a01b038316600090815260016020908152604080832033808552925290912054610295918591610290908563ffffffff61059f16565b610371565b505050565b3360008181526001602090815260408083206001600160a01b0387168452909152812054909161023b918590610290908663ffffffff6105e816565b6102e08282610642565b5050565b6001600160a01b031660009081526020819052604090205490565b3360008181526001602090815260408083206001600160a01b0387168452909152812054909161023b918590610290908663ffffffff61059f16565b6102e033838361045d565b6001600160a01b03918216600090815260016020908152604080832093909416825291909152205490565b6001600160a01b0383166103b65760405162461bcd60e51b815260040180806020018281038252603a815260200180610846603a913960400191505060405180910390fd5b6001600160a01b0382166103fb5760405162461bcd60e51b815260040180806020018281038252603881526020018061080e6038913960400191505060405180910390fd5b6001600160a01b03808416600081815260016020908152604080832094871680845294825291829020859055815185815291517f8c5be1e5ebec7d5bd14f71427d1e84f3dd0314c0f7b2291e5b200ac8c7c3b9259281900390910190a3505050565b6001600160a01b0383166104a25760405162461bcd60e51b81526004018080602001828103825260308152602001806107de6030913960400191505060405180910390fd5b6001600160a01b0382166104e75760405162461bcd60e51b815260040180806020018281038252602e815260200180610880602e913960400191505060405180910390fd5b6001600160a01b038316600090815260208190526040902054610510908263ffffffff61059f16565b6001600160a01b038085166000908152602081905260408082209390935590841681522054610545908263ffffffff6105e816565b6001600160a01b038084166000818152602081815260409182902094909455805185815290519193928716927fddf252ad1be2c89b69c2b068fc378daa952ba7f163c4a11628f55a4df523b3ef92918290030190a3505050565b60006105e183836040518060400160405280601e81526020017f536166654d6174683a207375627472616374696f6e206f766572666c6f77000081525061071c565b9392505050565b6000828201838110156105e1576040805162461bcd60e51b815260206004820152601b60248201527f536166654d6174683a206164646974696f6e206f766572666c6f770000000000604482015290519081900360640190fd5b6001600160a01b0382166106875760405162461bcd60e51b815260040180806020018281038252602a8152602001806107b4602a913960400191505060405180910390fd5b60025461069a908263ffffffff6105e816565b6002556001600160a01b0382166000908152602081905260409020546106c6908263ffffffff6105e816565b6001600160a01b0383166000818152602081815260408083209490945583518581529351929391927fddf252ad1be2c89b69c2b068fc378daa952ba7f163c4a11628f55a4df523b3ef9281900390910190a35050565b600081848411156107ab5760405162461bcd60e51b81526004018080602001828103825283818151815260200191508051906020019080838360005b83811015610770578181015183820152602001610758565b50505050905090810190601f16801561079d5780820380516001836020036101000a031916815260200191505b509250505060405180910390fd5b50505090039056fe4e6f6e5374616e6461726445524332303a206d696e7420746f20746865207a65726f20616464726573734e6f6e5374616e6461726445524332303a207472616e736665722066726f6d20746865207a65726f20616464726573734e6f6e5374616e6461726445524332303a206e6f6e5374616e64617264417070726f766520746f20746865207a65726f20616464726573734e6f6e5374616e6461726445524332303a206e6f6e5374616e64617264417070726f76652066726f6d20746865207a65726f20616464726573734e6f6e5374616e6461726445524332303a207472616e7366657220746f20746865207a65726f2061646472657373a265627a7a7231582025dc9168d258c0d70bef4c8cc68e1c6955b6cbe91f3a76168b773a5a0770902d64736f6c63430005110032",
  "source": "pragma solidity =0.5.17;\r\n\r\nimport \"@openzeppelin/contracts/math/SafeMath.sol\";\r\n\r\n/**\r\n * @title NonStandardERC20\r\n * @author Sablier\r\n * @dev Does not return a boolean on `transfer` and `transferFrom`.\r\n */\r\ncontract NonStandardERC20 {\r\n    using SafeMath for uint256;\r\n\r\n    mapping(address => uint256) private _balances;\r\n\r\n    mapping(address => mapping(address => uint256)) private _allowances;\r\n\r\n    uint256 private _totalSupply;\r\n\r\n    event Transfer(address indexed from, address indexed to, uint256 value);\r\n\r\n    event Approval(address indexed owner, address indexed spender, uint256 value);\r\n\r\n    function totalSupply() public view returns (uint256) {\r\n        return _totalSupply;\r\n    }\r\n\r\n    function balanceOf(address account) public view returns (uint256) {\r\n        return _balances[account];\r\n    }\r\n\r\n    function transfer(address recipient, uint256 amount) public {\r\n        _transfer(msg.sender, recipient, amount);\r\n    }\r\n\r\n    function allowance(address owner, address spender) public view returns (uint256) {\r\n        return _allowances[owner][spender];\r\n    }\r\n\r\n    function approve(address spender, uint256 value) public returns (bool) {\r\n        _approve(msg.sender, spender, value);\r\n        return true;\r\n    }\r\n\r\n    function transferFrom(address sender, address recipient, uint256 amount) public {\r\n        _transfer(sender, recipient, amount);\r\n        _approve(sender, msg.sender, _allowances[sender][msg.sender].sub(amount));\r\n    }\r\n\r\n    function increaseAllowance(address spender, uint256 addedValue) public returns (bool) {\r\n        _approve(msg.sender, spender, _allowances[msg.sender][spender].add(addedValue));\r\n        return true;\r\n    }\r\n\r\n    function decreaseAllowance(address spender, uint256 subtractedValue) public returns (bool) {\r\n        _approve(msg.sender, spender, _allowances[msg.sender][spender].sub(subtractedValue));\r\n        return true;\r\n    }\r\n\r\n    function mint(address account, uint256 amount) public {\r\n        _mint(account, amount);\r\n    }\r\n\r\n    function _transfer(address sender, address recipient, uint256 amount) internal {\r\n        require(sender != address(0), \"NonStandardERC20: transfer from the zero address\");\r\n        require(recipient != address(0), \"NonStandardERC20: transfer to the zero address\");\r\n\r\n        _balances[sender] = _balances[sender].sub(amount);\r\n        _balances[recipient] = _balances[recipient].add(amount);\r\n        emit Transfer(sender, recipient, amount);\r\n    }\r\n\r\n    function _mint(address account, uint256 amount) internal {\r\n        require(account != address(0), \"NonStandardERC20: mint to the zero address\");\r\n\r\n        _totalSupply = _totalSupply.add(amount);\r\n        _balances[account] = _balances[account].add(amount);\r\n        emit Transfer(address(0), account, amount);\r\n    }\r\n\r\n    function _burn(address account, uint256 value) internal {\r\n        require(account != address(0), \"NonStandardERC20: burn from the zero address\");\r\n\r\n        _totalSupply = _totalSupply.sub(value);\r\n        _balances[account] = _balances[account].sub(value);\r\n        emit Transfer(account, address(0), value);\r\n    }\r\n\r\n    function _approve(address owner, address spender, uint256 value) internal {\r\n        require(owner != address(0), \"NonStandardERC20: nonStandardApprove from the zero address\");\r\n        require(spender != address(0), \"NonStandardERC20: nonStandardApprove to the zero address\");\r\n\r\n        _allowances[owner][spender] = value;\r\n        emit Approval(owner, spender, value);\r\n    }\r\n\r\n    function _burnFrom(address account, uint256 amount) internal {\r\n        _burn(account, amount);\r\n        _approve(account, msg.sender, _allowances[account][msg.sender].sub(amount));\r\n    }\r\n}\r\n",
  "sourcePath": "@sablier\\shared-contracts\\test\\NonStandardERC20.sol",
  "compiler": {
    "name": "solc",
    "version": "0.5.17+commit.d19bba13.Emscripten.clang"
  },
  "schemaVersion": "3.4.3",
  "updatedAt": "2021-09-18T06:41:32.776Z",
  "devdoc": {
    "author": "Sablier",
    "details": "Does not return a boolean on `transfer` and `transferFrom`.",
    "methods": {},
    "title": "NonStandardERC20"
  },
  "userdoc": {
    "methods": {}
  }
}