{
  "contractName": "Sablier",
  "abi": [
    {
      "inputs": [],
      "payable": false,
      "stateMutability": "nonpayable",
      "type": "constructor"
    },
    {
      "anonymous": false,
      "inputs": [
        {
          "indexed": true,
          "internalType": "uint256",
          "name": "streamId",
          "type": "uint256"
        },
        {
          "indexed": true,
          "internalType": "address",
          "name": "sender",
          "type": "address"
        },
        {
          "indexed": true,
          "internalType": "address",
          "name": "recipient",
          "type": "address"
        },
        {
          "indexed": false,
          "internalType": "uint256",
          "name": "senderBalance",
          "type": "uint256"
        },
        {
          "indexed": false,
          "internalType": "uint256",
          "name": "recipientBalance",
          "type": "uint256"
        }
      ],
      "name": "CancelStream",
      "type": "event"
    },
    {
      "anonymous": false,
      "inputs": [
        {
          "indexed": true,
          "internalType": "uint256",
          "name": "streamId",
          "type": "uint256"
        },
        {
          "indexed": true,
          "internalType": "address",
          "name": "sender",
          "type": "address"
        },
        {
          "indexed": true,
          "internalType": "address",
          "name": "recipient",
          "type": "address"
        },
        {
          "indexed": false,
          "internalType": "uint256",
          "name": "deposit",
          "type": "uint256"
        },
        {
          "indexed": false,
          "internalType": "address",
          "name": "tokenAddress",
          "type": "address"
        },
        {
          "indexed": false,
          "internalType": "uint256",
          "name": "startTime",
          "type": "uint256"
        },
        {
          "indexed": false,
          "internalType": "uint256",
          "name": "stopTime",
          "type": "uint256"
        }
      ],
      "name": "CreateStream",
      "type": "event"
    },
    {
      "anonymous": false,
      "inputs": [
        {
          "indexed": true,
          "internalType": "uint256",
          "name": "streamId",
          "type": "uint256"
        },
        {
          "indexed": true,
          "internalType": "address",
          "name": "recipient",
          "type": "address"
        },
        {
          "indexed": false,
          "internalType": "uint256",
          "name": "amount",
          "type": "uint256"
        }
      ],
      "name": "WithdrawFromStream",
      "type": "event"
    },
    {
      "constant": true,
      "inputs": [],
      "name": "nextStreamId",
      "outputs": [
        {
          "internalType": "uint256",
          "name": "",
          "type": "uint256"
        }
      ],
      "payable": false,
      "stateMutability": "view",
      "type": "function"
    },
    {
      "constant": true,
      "inputs": [
        {
          "internalType": "uint256",
          "name": "streamId",
          "type": "uint256"
        }
      ],
      "name": "getStream",
      "outputs": [
        {
          "internalType": "address",
          "name": "sender",
          "type": "address"
        },
        {
          "internalType": "address",
          "name": "recipient",
          "type": "address"
        },
        {
          "internalType": "uint256",
          "name": "deposit",
          "type": "uint256"
        },
        {
          "internalType": "address",
          "name": "tokenAddress",
          "type": "address"
        },
        {
          "internalType": "uint256",
          "name": "startTime",
          "type": "uint256"
        },
        {
          "internalType": "uint256",
          "name": "stopTime",
          "type": "uint256"
        },
        {
          "internalType": "uint256",
          "name": "remainingBalance",
          "type": "uint256"
        },
        {
          "internalType": "uint256",
          "name": "ratePerSecond",
          "type": "uint256"
        }
      ],
      "payable": false,
      "stateMutability": "view",
      "type": "function"
    },
    {
      "constant": true,
      "inputs": [
        {
          "internalType": "uint256",
          "name": "streamId",
          "type": "uint256"
        }
      ],
      "name": "deltaOf",
      "outputs": [
        {
          "internalType": "uint256",
          "name": "delta",
          "type": "uint256"
        }
      ],
      "payable": false,
      "stateMutability": "view",
      "type": "function"
    },
    {
      "constant": true,
      "inputs": [
        {
          "internalType": "uint256",
          "name": "streamId",
          "type": "uint256"
        },
        {
          "internalType": "address",
          "name": "who",
          "type": "address"
        }
      ],
      "name": "balanceOf",
      "outputs": [
        {
          "internalType": "uint256",
          "name": "balance",
          "type": "uint256"
        }
      ],
      "payable": false,
      "stateMutability": "view",
      "type": "function"
    },
    {
      "constant": false,
      "inputs": [
        {
          "internalType": "address",
          "name": "recipient",
          "type": "address"
        },
        {
          "internalType": "uint256",
          "name": "deposit",
          "type": "uint256"
        },
        {
          "internalType": "address",
          "name": "tokenAddress",
          "type": "address"
        },
        {
          "internalType": "uint256",
          "name": "startTime",
          "type": "uint256"
        },
        {
          "internalType": "uint256",
          "name": "stopTime",
          "type": "uint256"
        }
      ],
      "name": "createStream",
      "outputs": [
        {
          "internalType": "uint256",
          "name": "",
          "type": "uint256"
        }
      ],
      "payable": false,
      "stateMutability": "nonpayable",
      "type": "function"
    },
    {
      "constant": false,
      "inputs": [
        {
          "internalType": "uint256",
          "name": "streamId",
          "type": "uint256"
        },
        {
          "internalType": "uint256",
          "name": "amount",
          "type": "uint256"
        }
      ],
      "name": "withdrawFromStream",
      "outputs": [
        {
          "internalType": "bool",
          "name": "",
          "type": "bool"
        }
      ],
      "payable": false,
      "stateMutability": "nonpayable",
      "type": "function"
    },
    {
      "constant": false,
      "inputs": [
        {
          "internalType": "uint256",
          "name": "streamId",
          "type": "uint256"
        }
      ],
      "name": "cancelStream",
      "outputs": [
        {
          "internalType": "bool",
          "name": "",
          "type": "bool"
        }
      ],
      "payable": false,
      "stateMutability": "nonpayable",
      "type": "function"
    }
  ],
  "bytecode": "0x608060405234801561001057600080fd5b506000805460ff19166001908117909155620186a09055611869806100366000396000f3fe608060405234801561001057600080fd5b506004361061007d5760003560e01c80637a9b2c6c1161005b5780637a9b2c6c146100f9578063894e9a0d1461011c578063a82ccd4d1461018c578063cc1b4bf6146101a95761007d565b80631e99d569146100825780633656eec21461009c5780636db9241b146100c8575b600080fd5b61008a6101e9565b60408051918252519081900360200190f35b61008a600480360360408110156100b257600080fd5b50803590602001356001600160a01b03166101ef565b6100e5600480360360208110156100de57600080fd5b50356104d4565b604080519115158252519081900360200190f35b6100e56004803603604081101561010f57600080fd5b50803590602001356107f6565b6101396004803603602081101561013257600080fd5b5035610b9c565b604080516001600160a01b03998a168152978916602089015287810196909652939096166060860152608085019190915260a084015260c083019390935260e08201929092529051908190036101000190f35b61008a600480360360208110156101a257600080fd5b5035610c70565b61008a600480360360a08110156101bf57600080fd5b506001600160a01b0381358116916020810135916040820135169060608101359060800135610dac565b60015481565b6000828152600260205260408120600701548390600160a01b900460ff16610256576040805162461bcd60e51b81526020600482015260156024820152741cdd1c99585b48191bd95cc81b9bdd08195e1a5cdd605a1b604482015290519081900360640190fd5b61025e611695565b50600084815260026020818152604092839020835161012081018552815481526001820154928101929092529182015492810192909252600381015460608301526004810154608083015260058101546001600160a01b0390811660a08401526006820154811660c084015260079091015490811660e0830152600160a01b900460ff1615156101008201526102f26116fe565b60006102fd87610c70565b905061030d818460200151611334565b602084018190528382600381111561032157fe5b600381111561032c57fe5b905250600090508251600381111561034057fe5b1461037c5760405162461bcd60e51b81526004018080602001828103825260238152602001806117b16023913960400191505060405180910390fd5b6040830151835111156104215761039b83600001518460400151611376565b60408401819052838260038111156103af57fe5b60038111156103ba57fe5b90525060009050825160038111156103ce57fe5b146103d557fe5b6103e782602001518360400151611376565b60208401819052838260038111156103fb57fe5b600381111561040657fe5b905250600090508251600381111561041a57fe5b1461042157fe5b8260a001516001600160a01b0316866001600160a01b0316141561044d57506020015192506104cd9050565b8260c001516001600160a01b0316866001600160a01b031614156104c55761047d83604001518360200151611376565b606084018190528382600381111561049157fe5b600381111561049c57fe5b90525060009050825160038111156104b057fe5b146104b757fe5b506060015192506104cd9050565b600094505050505b5092915050565b6000805460ff1661052c576040805162461bcd60e51b815260206004820152601f60248201527f5265656e7472616e637947756172643a207265656e7472616e742063616c6c00604482015290519081900360640190fd5b6000805460ff19168155828152600260205260409020600701548290600160a01b900460ff1661059b576040805162461bcd60e51b81526020600482015260156024820152741cdd1c99585b48191bd95cc81b9bdd08195e1a5cdd605a1b604482015290519081900360640190fd5b60008381526002602052604090206006015483906001600160a01b03163314806105de57506000818152600260205260409020600501546001600160a01b031633145b6106195760405162461bcd60e51b81526004018080602001828103825260378152602001806117d46037913960400191505060405180910390fd5b610621611695565b506000848152600260208181526040808420815161012081018352815481526001820154938101939093529283015490820152600382015460608201526004820154608082015260058201546001600160a01b0390811660a08301526006830154811660c0830181905260079093015490811660e0830152600160a01b900460ff16151561010082015291906106b89087906101ef565b905060006106ca878460a001516101ef565b60008881526002602081905260408220828155600181018390559081018290556003810182905560048101919091556005810180546001600160a01b0319908116909155600682018054909116905560070180546001600160a81b031916905560e084015190915081156107585760a0840151610758906001600160a01b038316908463ffffffff61139916565b821561077e5760c084015161077e906001600160a01b038316908563ffffffff61139916565b8360a001516001600160a01b03168460c001516001600160a01b0316897fca3e6079b726e7728802a0537949e2d1c7762304fa641fb06eb56daf2ba8c6b98686604051808381526020018281526020019250505060405180910390a4600196505050505050506000805460ff19166001179055919050565b6000805460ff1661084e576040805162461bcd60e51b815260206004820152601f60248201527f5265656e7472616e637947756172643a207265656e7472616e742063616c6c00604482015290519081900360640190fd5b6000805460ff19168155838152600260205260409020600701548390600160a01b900460ff166108bd576040805162461bcd60e51b81526020600482015260156024820152741cdd1c99585b48191bd95cc81b9bdd08195e1a5cdd605a1b604482015290519081900360640190fd5b60008481526002602052604090206006015484906001600160a01b031633148061090057506000818152600260205260409020600501546001600160a01b031633145b61093b5760405162461bcd60e51b81526004018080602001828103825260378152602001806117d46037913960400191505060405180910390fd5b60008411610981576040805162461bcd60e51b815260206004820152600e60248201526d616d6f756e74206973207a65726f60901b604482015290519081900360640190fd5b610989611695565b506000858152600260208181526040808420815161012081018352815481526001820154938101939093529283015490820152600382015460608201526004820154608082015260058201546001600160a01b0390811660a083018190526006840154821660c084015260079093015490811660e0830152600160a01b900460ff1615156101008201529190610a209088906101ef565b905085811015610a615760405162461bcd60e51b815260040180806020018281038252602481526020018061174a6024913960400191505060405180910390fd5b6000610a71836040015188611376565b60008a815260026020819052604082200191909155909150816003811115610a9557fe5b14610a9c57fe5b60008881526002602081905260409091200154610b145760008881526002602081905260408220828155600181018390559081018290556003810182905560048101919091556005810180546001600160a01b0319908116909155600682018054909116905560070180546001600160a81b03191690555b610b3a8360a00151888560e001516001600160a01b03166113999092919063ffffffff16565b8260a001516001600160a01b0316887f36c3ab437e6a424ed25dc4bfdeb62706aa06558660fab2dab229d2555adaf89c896040518082815260200191505060405180910390a36001955050505050506000805460ff1916600117905592915050565b600080600080600080600080886002600082815260200190815260200160002060070160149054906101000a900460ff16610c16576040805162461bcd60e51b81526020600482015260156024820152741cdd1c99585b48191bd95cc81b9bdd08195e1a5cdd605a1b604482015290519081900360640190fd5b505050600096875250506002602081905260409095206006810154600582015482546007840154600385015460048601549a8601546001909601546001600160a01b039586169c9486169b939a5094909116975095509350565b6000818152600260205260408120600701548290600160a01b900460ff16610cd7576040805162461bcd60e51b81526020600482015260156024820152741cdd1c99585b48191bd95cc81b9bdd08195e1a5cdd605a1b604482015290519081900360640190fd5b610cdf611695565b506000838152600260208181526040928390208351610120810185528154815260018201549281019290925291820154928101929092526003810154606083018190526004820154608084015260058201546001600160a01b0390811660a08501526006830154811660c085015260079092015491821660e0840152600160a01b90910460ff1615156101008301524211610d7e576000925050610da6565b8060800151421015610d97576060015142039150610da6565b80606001518160800151039250505b50919050565b60006001600160a01b038616610e09576040805162461bcd60e51b815260206004820152601a60248201527f73747265616d20746f20746865207a65726f2061646472657373000000000000604482015290519081900360640190fd5b6001600160a01b038616301415610e67576040805162461bcd60e51b815260206004820152601d60248201527f73747265616d20746f2074686520636f6e747261637420697473656c66000000604482015290519081900360640190fd5b6001600160a01b038616331415610ebc576040805162461bcd60e51b815260206004820152601460248201527339ba3932b0b6903a37903a34329031b0b63632b960611b604482015290519081900360640190fd5b60008511610f03576040805162461bcd60e51b815260206004820152600f60248201526e6465706f736974206973207a65726f60881b604482015290519081900360640190fd5b42831015610f425760405162461bcd60e51b815260040180806020018281038252602181526020018061176e6021913960400191505060405180910390fd5b828211610f96576040805162461bcd60e51b815260206004820152601f60248201527f73746f702074696d65206265666f7265207468652073746172742074696d6500604482015290519081900360640190fd5b610f9e611727565b610fa88385611376565b6020830181905282826003811115610fbc57fe5b6003811115610fc757fe5b9052506000905081516003811115610fdb57fe5b14610fe257fe5b806020015186101561103b576040805162461bcd60e51b815260206004820152601f60248201527f6465706f73697420736d616c6c6572207468616e2074696d652064656c746100604482015290519081900360640190fd5b8060200151868161104857fe5b06156110855760405162461bcd60e51b815260040180806020018281038252602281526020018061178f6022913960400191505060405180910390fd5b6110938682602001516113f0565b60408301819052828260038111156110a757fe5b60038111156110b257fe5b90525060009050815160038111156110c657fe5b146110cd57fe5b6000600154905060405180610120016040528088815260200183604001518152602001888152602001868152602001858152602001896001600160a01b03168152602001336001600160a01b03168152602001876001600160a01b031681526020016001151581525060026000838152602001908152602001600020600082015181600001556020820151816001015560408201518160020155606082015181600301556080820151816004015560a08201518160050160006101000a8154816001600160a01b0302191690836001600160a01b0316021790555060c08201518160060160006101000a8154816001600160a01b0302191690836001600160a01b0316021790555060e08201518160070160006101000a8154816001600160a01b0302191690836001600160a01b031602179055506101008201518160070160146101000a81548160ff021916908315150217905550905050611233600154600161141b565b60018190558382600381111561124557fe5b600381111561125057fe5b905250600090508251600381111561126457fe5b146112b6576040805162461bcd60e51b815260206004820181905260248201527f6e6578742073747265616d2069642063616c63756c6174696f6e206572726f72604482015290519081900360640190fd5b6112d16001600160a01b03871633308a63ffffffff61144116565b604080518881526001600160a01b038881166020830152818301889052606082018790529151918a1691339184917f7b01d409597969366dc268d7f957a990d1ca3d3449baf8fb45db67351aecfe789181900360800190a4979650505050505050565b600080836113475750600090508061136f565b8383028385828161135457fe5b04146113685750600291506000905061136f565b6000925090505b9250929050565b60008083831161138d57506000905081830361136f565b5060039050600061136f565b604080516001600160a01b038416602482015260448082018490528251808303909101815260649091019091526020810180516001600160e01b031663a9059cbb60e01b1790526113eb9084906114a1565b505050565b60008082611404575060019050600061136f565b600083858161140f57fe5b04915091509250929050565b6000808383018481106114335760009250905061136f565b50600291506000905061136f565b604080516001600160a01b0385811660248301528416604482015260648082018490528251808303909101815260849091019091526020810180516001600160e01b03166323b872dd60e01b17905261149b9085906114a1565b50505050565b6114b3826001600160a01b0316611659565b611504576040805162461bcd60e51b815260206004820152601f60248201527f5361666545524332303a2063616c6c20746f206e6f6e2d636f6e747261637400604482015290519081900360640190fd5b60006060836001600160a01b0316836040518082805190602001908083835b602083106115425780518252601f199092019160209182019101611523565b6001836020036101000a0380198251168184511680821785525050505050509050019150506000604051808303816000865af19150503d80600081146115a4576040519150601f19603f3d011682016040523d82523d6000602084013e6115a9565b606091505b509150915081611600576040805162461bcd60e51b815260206004820181905260248201527f5361666545524332303a206c6f772d6c6576656c2063616c6c206661696c6564604482015290519081900360640190fd5b80511561149b5780806020019051602081101561161c57600080fd5b505161149b5760405162461bcd60e51b815260040180806020018281038252602a81526020018061180b602a913960400191505060405180910390fd5b6000813f7fc5d2460186f7233c927e7db2dcc703c0e500b653ca82273b7bfad8045d85a47081811480159061168d57508115155b949350505050565b604051806101200160405280600081526020016000815260200160008152602001600081526020016000815260200160006001600160a01b0316815260200160006001600160a01b0316815260200160006001600160a01b031681526020016000151581525090565b604080516080810190915280600081526020016000815260200160008152602001600081525090565b604080516060810190915280600081526020016000815260200160008152509056fe616d6f756e7420657863656564732074686520617661696c61626c652062616c616e636573746172742074696d65206265666f726520626c6f636b2e74696d657374616d706465706f736974206e6f74206d756c7469706c65206f662074696d652064656c7461726563697069656e742062616c616e63652063616c63756c6174696f6e206572726f7263616c6c6572206973206e6f74207468652073656e646572206f722074686520726563697069656e74206f66207468652073747265616d5361666545524332303a204552433230206f7065726174696f6e20646964206e6f742073756363656564a265627a7a723158207806e2c19b46b3d036aebcab63d55dd19a422a2747f4db9b7af2444cc6661a0f64736f6c63430005110032",
  "source": "pragma solidity =0.5.17;\r\n\r\nimport \"@openzeppelin/contracts/token/ERC20/IERC20.sol\";\r\nimport \"@openzeppelin/contracts/token/ERC20/SafeERC20.sol\";\r\nimport \"@openzeppelin/contracts/utils/ReentrancyGuard.sol\";\r\nimport \"@sablier/shared-contracts/compound/CarefulMath.sol\";\r\n\r\nimport \"./interfaces/ISablier.sol\";\r\nimport \"./Types.sol\";\r\n\r\n/**\r\n * @title Sablier\r\n * @author Sablier\r\n * @notice Money streaming.\r\n */\r\ncontract Sablier is ISablier, ReentrancyGuard, CarefulMath {\r\n    using SafeERC20 for IERC20;\r\n\r\n    /*** Storage Properties ***/\r\n\r\n    /**\r\n     * @notice Counter for new stream ids.\r\n     */\r\n    uint256 public nextStreamId;\r\n\r\n    /**\r\n     * @notice The stream objects identifiable by their unsigned integer ids.\r\n     */\r\n    mapping(uint256 => Types.Stream) private streams;\r\n\r\n    /*** Modifiers ***/\r\n\r\n    /**\r\n     * @dev Throws if the caller is not the sender of the recipient of the stream.\r\n     */\r\n    modifier onlySenderOrRecipient(uint256 streamId) {\r\n        require(\r\n            msg.sender == streams[streamId].sender || msg.sender == streams[streamId].recipient,\r\n            \"caller is not the sender or the recipient of the stream\"\r\n        );\r\n        _;\r\n    }\r\n\r\n    /**\r\n     * @dev Throws if the provided id does not point to a valid stream.\r\n     */\r\n    modifier streamExists(uint256 streamId) {\r\n        require(streams[streamId].isEntity, \"stream does not exist\");\r\n        _;\r\n    }\r\n\r\n    /*** Contract Logic Starts Here */\r\n\r\n    constructor() public {\r\n        nextStreamId = 100000;\r\n    }\r\n\r\n    /*** View Functions ***/\r\n\r\n    /**\r\n     * @notice Returns the stream with all its properties.\r\n     * @dev Throws if the id does not point to a valid stream.\r\n     * @param streamId The id of the stream to query.\r\n     * @return The stream object.\r\n     */\r\n    function getStream(uint256 streamId)\r\n        external\r\n        view\r\n        streamExists(streamId)\r\n        returns (\r\n            address sender,\r\n            address recipient,\r\n            uint256 deposit,\r\n            address tokenAddress,\r\n            uint256 startTime,\r\n            uint256 stopTime,\r\n            uint256 remainingBalance,\r\n            uint256 ratePerSecond\r\n        )\r\n    {\r\n        sender = streams[streamId].sender;\r\n        recipient = streams[streamId].recipient;\r\n        deposit = streams[streamId].deposit;\r\n        tokenAddress = streams[streamId].tokenAddress;\r\n        startTime = streams[streamId].startTime;\r\n        stopTime = streams[streamId].stopTime;\r\n        remainingBalance = streams[streamId].remainingBalance;\r\n        ratePerSecond = streams[streamId].ratePerSecond;\r\n    }\r\n\r\n    /**\r\n     * @notice Returns either the delta in seconds between `block.timestamp` and `startTime` or\r\n     *  between `stopTime` and `startTime, whichever is smaller. If `block.timestamp` is before\r\n     *  `startTime`, it returns 0.\r\n     * @dev Throws if the id does not point to a valid stream.\r\n     * @param streamId The id of the stream for which to query the delta.\r\n     * @return The time delta in seconds.\r\n     */\r\n    function deltaOf(uint256 streamId) public view streamExists(streamId) returns (uint256 delta) {\r\n        Types.Stream memory stream = streams[streamId];\r\n        if (block.timestamp <= stream.startTime) return 0;\r\n        if (block.timestamp < stream.stopTime) return block.timestamp - stream.startTime;\r\n        return stream.stopTime - stream.startTime;\r\n    }\r\n\r\n    struct BalanceOfLocalVars {\r\n        MathError mathErr;\r\n        uint256 recipientBalance;\r\n        uint256 withdrawalAmount;\r\n        uint256 senderBalance;\r\n    }\r\n\r\n    /**\r\n     * @notice Returns the available funds for the given stream id and address.\r\n     * @dev Throws if the id does not point to a valid stream.\r\n     * @param streamId The id of the stream for which to query the balance.\r\n     * @param who The address for which to query the balance.\r\n     * @return The total funds allocated to `who` as uint256.\r\n     */\r\n    function balanceOf(uint256 streamId, address who) public view streamExists(streamId) returns (uint256 balance) {\r\n        Types.Stream memory stream = streams[streamId];\r\n        BalanceOfLocalVars memory vars;\r\n\r\n        uint256 delta = deltaOf(streamId);\r\n        (vars.mathErr, vars.recipientBalance) = mulUInt(delta, stream.ratePerSecond);\r\n        require(vars.mathErr == MathError.NO_ERROR, \"recipient balance calculation error\");\r\n\r\n        /*\r\n         * If the stream `balance` does not equal `deposit`, it means there have been withdrawals.\r\n         * We have to subtract the total amount withdrawn from the amount of money that has been\r\n         * streamed until now.\r\n         */\r\n        if (stream.deposit > stream.remainingBalance) {\r\n            (vars.mathErr, vars.withdrawalAmount) = subUInt(stream.deposit, stream.remainingBalance);\r\n            assert(vars.mathErr == MathError.NO_ERROR);\r\n            (vars.mathErr, vars.recipientBalance) = subUInt(vars.recipientBalance, vars.withdrawalAmount);\r\n            /* `withdrawalAmount` cannot and should not be bigger than `recipientBalance`. */\r\n            assert(vars.mathErr == MathError.NO_ERROR);\r\n        }\r\n\r\n        if (who == stream.recipient) return vars.recipientBalance;\r\n        if (who == stream.sender) {\r\n            (vars.mathErr, vars.senderBalance) = subUInt(stream.remainingBalance, vars.recipientBalance);\r\n            /* `recipientBalance` cannot and should not be bigger than `remainingBalance`. */\r\n            assert(vars.mathErr == MathError.NO_ERROR);\r\n            return vars.senderBalance;\r\n        }\r\n        return 0;\r\n    }\r\n\r\n    /*** Public Effects & Interactions Functions ***/\r\n\r\n    struct CreateStreamLocalVars {\r\n        MathError mathErr;\r\n        uint256 duration;\r\n        uint256 ratePerSecond;\r\n    }\r\n\r\n    /**\r\n     * @notice Creates a new stream funded by `msg.sender` and paid towards `recipient`.\r\n     * @dev Throws if the recipient is the zero address, the contract itself or the caller.\r\n     *  Throws if the deposit is 0.\r\n     *  Throws if the start time is before `block.timestamp`.\r\n     *  Throws if the stop time is before the start time.\r\n     *  Throws if the duration calculation has a math error.\r\n     *  Throws if the deposit is smaller than the duration.\r\n     *  Throws if the deposit is not a multiple of the duration.\r\n     *  Throws if the rate calculation has a math error.\r\n     *  Throws if the next stream id calculation has a math error.\r\n     *  Throws if the contract is not allowed to transfer enough tokens.\r\n     *  Throws if there is a token transfer failure.\r\n     * @param recipient The address towards which the money is streamed.\r\n     * @param deposit The amount of money to be streamed.\r\n     * @param tokenAddress The ERC20 token to use as streaming currency.\r\n     * @param startTime The unix timestamp for when the stream starts.\r\n     * @param stopTime The unix timestamp for when the stream stops.\r\n     * @return The uint256 id of the newly created stream.\r\n     */\r\n    function createStream(address recipient, uint256 deposit, address tokenAddress, uint256 startTime, uint256 stopTime)\r\n        public\r\n        returns (uint256)\r\n    {\r\n        require(recipient != address(0x00), \"stream to the zero address\");\r\n        require(recipient != address(this), \"stream to the contract itself\");\r\n        require(recipient != msg.sender, \"stream to the caller\");\r\n        require(deposit > 0, \"deposit is zero\");\r\n        require(startTime >= block.timestamp, \"start time before block.timestamp\");\r\n        require(stopTime > startTime, \"stop time before the start time\");\r\n\r\n        CreateStreamLocalVars memory vars;\r\n        (vars.mathErr, vars.duration) = subUInt(stopTime, startTime);\r\n        /* `subUInt` can only return MathError.INTEGER_UNDERFLOW but we know `stopTime` is higher than `startTime`. */\r\n        assert(vars.mathErr == MathError.NO_ERROR);\r\n\r\n        /* Without this, the rate per second would be zero. */\r\n        require(deposit >= vars.duration, \"deposit smaller than time delta\");\r\n\r\n        /* This condition avoids dealing with remainders */\r\n        require(deposit % vars.duration == 0, \"deposit not multiple of time delta\");\r\n\r\n        (vars.mathErr, vars.ratePerSecond) = divUInt(deposit, vars.duration);\r\n        /* `divUInt` can only return MathError.DIVISION_BY_ZERO but we know `duration` is not zero. */\r\n        assert(vars.mathErr == MathError.NO_ERROR);\r\n\r\n        /* Create and store the stream object. */\r\n        uint256 streamId = nextStreamId;\r\n        streams[streamId] = Types.Stream({\r\n            remainingBalance: deposit,\r\n            deposit: deposit,\r\n            isEntity: true,\r\n            ratePerSecond: vars.ratePerSecond,\r\n            recipient: recipient,\r\n            sender: msg.sender,\r\n            startTime: startTime,\r\n            stopTime: stopTime,\r\n            tokenAddress: tokenAddress\r\n        });\r\n\r\n        /* Increment the next stream id. */\r\n        (vars.mathErr, nextStreamId) = addUInt(nextStreamId, uint256(1));\r\n        require(vars.mathErr == MathError.NO_ERROR, \"next stream id calculation error\");\r\n\r\n        IERC20(tokenAddress).safeTransferFrom(msg.sender, address(this), deposit);\r\n        emit CreateStream(streamId, msg.sender, recipient, deposit, tokenAddress, startTime, stopTime);\r\n        return streamId;\r\n    }\r\n\r\n    /**\r\n     * @notice Withdraws from the contract to the recipient's account.\r\n     * @dev Throws if the id does not point to a valid stream.\r\n     *  Throws if the caller is not the sender or the recipient of the stream.\r\n     *  Throws if the amount exceeds the available balance.\r\n     *  Throws if there is a token transfer failure.\r\n     * @param streamId The id of the stream to withdraw tokens from.\r\n     * @param amount The amount of tokens to withdraw.\r\n     */\r\n    function withdrawFromStream(uint256 streamId, uint256 amount)\r\n        external\r\n        nonReentrant\r\n        streamExists(streamId)\r\n        onlySenderOrRecipient(streamId)\r\n        returns (bool)\r\n    {\r\n        require(amount > 0, \"amount is zero\");\r\n        Types.Stream memory stream = streams[streamId];\r\n\r\n        uint256 balance = balanceOf(streamId, stream.recipient);\r\n        require(balance >= amount, \"amount exceeds the available balance\");\r\n\r\n        MathError mathErr;\r\n        (mathErr, streams[streamId].remainingBalance) = subUInt(stream.remainingBalance, amount);\r\n        /**\r\n         * `subUInt` can only return MathError.INTEGER_UNDERFLOW but we know that `remainingBalance` is at least\r\n         * as big as `amount`.\r\n         */\r\n        assert(mathErr == MathError.NO_ERROR);\r\n\r\n        if (streams[streamId].remainingBalance == 0) delete streams[streamId];\r\n\r\n        IERC20(stream.tokenAddress).safeTransfer(stream.recipient, amount);\r\n        emit WithdrawFromStream(streamId, stream.recipient, amount);\r\n        return true;\r\n    }\r\n\r\n    /**\r\n     * @notice Cancels the stream and transfers the tokens back on a pro rata basis.\r\n     * @dev Throws if the id does not point to a valid stream.\r\n     *  Throws if the caller is not the sender or the recipient of the stream.\r\n     *  Throws if there is a token transfer failure.\r\n     * @param streamId The id of the stream to cancel.\r\n     * @return bool true=success, otherwise false.\r\n     */\r\n    function cancelStream(uint256 streamId)\r\n        external\r\n        nonReentrant\r\n        streamExists(streamId)\r\n        onlySenderOrRecipient(streamId)\r\n        returns (bool)\r\n    {\r\n        Types.Stream memory stream = streams[streamId];\r\n        uint256 senderBalance = balanceOf(streamId, stream.sender);\r\n        uint256 recipientBalance = balanceOf(streamId, stream.recipient);\r\n\r\n        delete streams[streamId];\r\n\r\n        IERC20 token = IERC20(stream.tokenAddress);\r\n        if (recipientBalance > 0) token.safeTransfer(stream.recipient, recipientBalance);\r\n        if (senderBalance > 0) token.safeTransfer(stream.sender, senderBalance);\r\n\r\n        emit CancelStream(streamId, stream.sender, stream.recipient, senderBalance, recipientBalance);\r\n        return true;\r\n    }\r\n}\r\n",
  "sourcePath": "C:\\webDevelopment\\sablier\\packages\\protocol\\contracts\\Sablier.sol",
  "compiler": {
    "name": "solc",
    "version": "0.5.17+commit.d19bba13.Emscripten.clang"
  },
  "schemaVersion": "3.4.3",
  "updatedAt": "2021-09-18T06:41:35.608Z",
  "networkType": "ethereum",
  "devdoc": {
    "author": "Sablier",
    "methods": {
      "balanceOf(uint256,address)": {
        "details": "Throws if the id does not point to a valid stream.",
        "params": {
          "streamId": "The id of the stream for which to query the balance.",
          "who": "The address for which to query the balance."
        },
        "return": "The total funds allocated to `who` as uint256."
      },
      "cancelStream(uint256)": {
        "details": "Throws if the id does not point to a valid stream. Throws if the caller is not the sender or the recipient of the stream. Throws if there is a token transfer failure.",
        "params": {
          "streamId": "The id of the stream to cancel."
        },
        "return": "bool true=success, otherwise false."
      },
      "createStream(address,uint256,address,uint256,uint256)": {
        "details": "Throws if the recipient is the zero address, the contract itself or the caller. Throws if the deposit is 0. Throws if the start time is before `block.timestamp`. Throws if the stop time is before the start time. Throws if the duration calculation has a math error. Throws if the deposit is smaller than the duration. Throws if the deposit is not a multiple of the duration. Throws if the rate calculation has a math error. Throws if the next stream id calculation has a math error. Throws if the contract is not allowed to transfer enough tokens. Throws if there is a token transfer failure.",
        "params": {
          "deposit": "The amount of money to be streamed.",
          "recipient": "The address towards which the money is streamed.",
          "startTime": "The unix timestamp for when the stream starts.",
          "stopTime": "The unix timestamp for when the stream stops.",
          "tokenAddress": "The ERC20 token to use as streaming currency."
        },
        "return": "The uint256 id of the newly created stream."
      },
      "deltaOf(uint256)": {
        "details": "Throws if the id does not point to a valid stream.",
        "params": {
          "streamId": "The id of the stream for which to query the delta."
        },
        "return": "The time delta in seconds."
      },
      "getStream(uint256)": {
        "details": "Throws if the id does not point to a valid stream.",
        "params": {
          "streamId": "The id of the stream to query."
        },
        "return": "The stream object."
      },
      "withdrawFromStream(uint256,uint256)": {
        "details": "Throws if the id does not point to a valid stream. Throws if the caller is not the sender or the recipient of the stream. Throws if the amount exceeds the available balance. Throws if there is a token transfer failure.",
        "params": {
          "amount": "The amount of tokens to withdraw.",
          "streamId": "The id of the stream to withdraw tokens from."
        }
      }
    },
    "title": "Sablier"
  },
  "userdoc": {
    "methods": {
      "balanceOf(uint256,address)": {
        "notice": "Returns the available funds for the given stream id and address."
      },
      "cancelStream(uint256)": {
        "notice": "Cancels the stream and transfers the tokens back on a pro rata basis."
      },
      "constructor": "* Contract Logic Starts Here ",
      "createStream(address,uint256,address,uint256,uint256)": {
        "notice": "Creates a new stream funded by `msg.sender` and paid towards `recipient`."
      },
      "deltaOf(uint256)": {
        "notice": "Returns either the delta in seconds between `block.timestamp` and `startTime` or between `stopTime` and `startTime, whichever is smaller. If `block.timestamp` is before `startTime`, it returns 0."
      },
      "getStream(uint256)": {
        "notice": "Returns the stream with all its properties."
      },
      "withdrawFromStream(uint256,uint256)": {
        "notice": "Withdraws from the contract to the recipient's account."
      }
    },
    "notice": "Money streaming."
  }
}