{
  "contractName": "EvilERC20",
  "abi": [
    {
      "inputs": [],
      "payable": false,
      "stateMutability": "nonpayable",
      "type": "constructor"
    },
    {
      "anonymous": false,
      "inputs": [
        {
          "indexed": true,
          "internalType": "address",
          "name": "owner",
          "type": "address"
        },
        {
          "indexed": true,
          "internalType": "address",
          "name": "spender",
          "type": "address"
        },
        {
          "indexed": false,
          "internalType": "uint256",
          "name": "value",
          "type": "uint256"
        }
      ],
      "name": "Approval",
      "type": "event"
    },
    {
      "anonymous": false,
      "inputs": [
        {
          "indexed": true,
          "internalType": "address",
          "name": "from",
          "type": "address"
        },
        {
          "indexed": true,
          "internalType": "address",
          "name": "to",
          "type": "address"
        },
        {
          "indexed": false,
          "internalType": "uint256",
          "name": "value",
          "type": "uint256"
        }
      ],
      "name": "Transfer",
      "type": "event"
    },
    {
      "constant": true,
      "inputs": [
        {
          "internalType": "address",
          "name": "owner",
          "type": "address"
        },
        {
          "internalType": "address",
          "name": "spender",
          "type": "address"
        }
      ],
      "name": "allowance",
      "outputs": [
        {
          "internalType": "uint256",
          "name": "",
          "type": "uint256"
        }
      ],
      "payable": false,
      "stateMutability": "view",
      "type": "function"
    },
    {
      "constant": false,
      "inputs": [
        {
          "internalType": "address",
          "name": "spender",
          "type": "address"
        },
        {
          "internalType": "uint256",
          "name": "value",
          "type": "uint256"
        }
      ],
      "name": "approve",
      "outputs": [
        {
          "internalType": "bool",
          "name": "",
          "type": "bool"
        }
      ],
      "payable": false,
      "stateMutability": "nonpayable",
      "type": "function"
    },
    {
      "constant": true,
      "inputs": [
        {
          "internalType": "address",
          "name": "account",
          "type": "address"
        }
      ],
      "name": "balanceOf",
      "outputs": [
        {
          "internalType": "uint256",
          "name": "",
          "type": "uint256"
        }
      ],
      "payable": false,
      "stateMutability": "view",
      "type": "function"
    },
    {
      "constant": false,
      "inputs": [
        {
          "internalType": "address",
          "name": "spender",
          "type": "address"
        },
        {
          "internalType": "uint256",
          "name": "subtractedValue",
          "type": "uint256"
        }
      ],
      "name": "decreaseAllowance",
      "outputs": [
        {
          "internalType": "bool",
          "name": "",
          "type": "bool"
        }
      ],
      "payable": false,
      "stateMutability": "nonpayable",
      "type": "function"
    },
    {
      "constant": false,
      "inputs": [
        {
          "internalType": "address",
          "name": "spender",
          "type": "address"
        },
        {
          "internalType": "uint256",
          "name": "addedValue",
          "type": "uint256"
        }
      ],
      "name": "increaseAllowance",
      "outputs": [
        {
          "internalType": "bool",
          "name": "",
          "type": "bool"
        }
      ],
      "payable": false,
      "stateMutability": "nonpayable",
      "type": "function"
    },
    {
      "constant": true,
      "inputs": [],
      "name": "totalSupply",
      "outputs": [
        {
          "internalType": "uint256",
          "name": "",
          "type": "uint256"
        }
      ],
      "payable": false,
      "stateMutability": "view",
      "type": "function"
    },
    {
      "constant": false,
      "inputs": [
        {
          "internalType": "bool",
          "name": "value",
          "type": "bool"
        }
      ],
      "name": "setShouldDisableTransfer",
      "outputs": [],
      "payable": false,
      "stateMutability": "nonpayable",
      "type": "function"
    },
    {
      "constant": false,
      "inputs": [
        {
          "internalType": "bool",
          "name": "value",
          "type": "bool"
        }
      ],
      "name": "setShouldDisableTransferFrom",
      "outputs": [],
      "payable": false,
      "stateMutability": "nonpayable",
      "type": "function"
    },
    {
      "constant": false,
      "inputs": [
        {
          "internalType": "address",
          "name": "to",
          "type": "address"
        },
        {
          "internalType": "uint256",
          "name": "value",
          "type": "uint256"
        }
      ],
      "name": "transfer",
      "outputs": [
        {
          "internalType": "bool",
          "name": "",
          "type": "bool"
        }
      ],
      "payable": false,
      "stateMutability": "nonpayable",
      "type": "function"
    },
    {
      "constant": false,
      "inputs": [
        {
          "internalType": "address",
          "name": "from",
          "type": "address"
        },
        {
          "internalType": "address",
          "name": "to",
          "type": "address"
        },
        {
          "internalType": "uint256",
          "name": "value",
          "type": "uint256"
        }
      ],
      "name": "transferFrom",
      "outputs": [
        {
          "internalType": "bool",
          "name": "",
          "type": "bool"
        }
      ],
      "payable": false,
      "stateMutability": "nonpayable",
      "type": "function"
    },
    {
      "constant": false,
      "inputs": [
        {
          "internalType": "address",
          "name": "to",
          "type": "address"
        },
        {
          "internalType": "uint256",
          "name": "amount",
          "type": "uint256"
        }
      ],
      "name": "mint",
      "outputs": [],
      "payable": false,
      "stateMutability": "nonpayable",
      "type": "function"
    }
  ],
  "bytecode": "0x608060405234801561001057600080fd5b506003805461ffff191690556108e08061002b6000396000f3fe608060405234801561001057600080fd5b50600436106100a95760003560e01c806340c10f191161007157806340c10f191461018b57806367f27088146101b757806370a08231146101d6578063a457c2d7146101fc578063a9059cbb14610228578063dd62ed3e14610254576100a9565b8063095ea7b3146100ae57806318160ddd146100ee57806323b872dd14610108578063395093511461013e5780633e38eaa91461016a575b600080fd5b6100da600480360360408110156100c457600080fd5b506001600160a01b038135169060200135610282565b604080519115158252519081900360200190f35b6100f6610299565b60408051918252519081900360200190f35b6100da6004803603606081101561011e57600080fd5b506001600160a01b0381358116916020810135909116906040013561029f565b6100da6004803603604081101561015457600080fd5b506001600160a01b0381351690602001356102cf565b6101896004803603602081101561018057600080fd5b50351515610310565b005b610189600480360360408110156101a157600080fd5b506001600160a01b038135169060200135610323565b610189600480360360208110156101cd57600080fd5b50351515610331565b6100f6600480360360208110156101ec57600080fd5b50356001600160a01b031661034b565b6100da6004803603604081101561021257600080fd5b506001600160a01b038135169060200135610366565b6100da6004803603604081101561023e57600080fd5b506001600160a01b0381351690602001356103a2565b6100f66004803603604081101561026a57600080fd5b506001600160a01b03813581169160200135166103c2565b600061028f3384846103ed565b5060015b92915050565b60025490565b600354600090610100900460ff16156102ba575060006102c8565b6102c58484846104d9565b90505b9392505050565b3360008181526001602090815260408083206001600160a01b0387168452909152812054909161028f91859061030b908663ffffffff61052b16565b6103ed565b6003805460ff1916911515919091179055565b61032d8282610585565b5050565b600380549115156101000261ff0019909216919091179055565b6001600160a01b031660009081526020819052604090205490565b3360008181526001602090815260408083206001600160a01b0387168452909152812054909161028f91859061030b908663ffffffff61067516565b60035460009060ff16156103b857506000610293565b6102c883836106d2565b6001600160a01b03918216600090815260016020908152604080832093909416825291909152205490565b6001600160a01b0383166104325760405162461bcd60e51b81526004018080602001828103825260248152602001806108886024913960400191505060405180910390fd5b6001600160a01b0382166104775760405162461bcd60e51b81526004018080602001828103825260228152602001806108416022913960400191505060405180910390fd5b6001600160a01b03808416600081815260016020908152604080832094871680845294825291829020859055815185815291517f8c5be1e5ebec7d5bd14f71427d1e84f3dd0314c0f7b2291e5b200ac8c7c3b9259281900390910190a3505050565b60006104e68484846106db565b6001600160a01b03841660009081526001602090815260408083203380855292529091205461052191869161030b908663ffffffff61067516565b5060019392505050565b6000828201838110156102c8576040805162461bcd60e51b815260206004820152601b60248201527f536166654d6174683a206164646974696f6e206f766572666c6f770000000000604482015290519081900360640190fd5b6001600160a01b0382166105e0576040805162461bcd60e51b815260206004820152601f60248201527f45524332303a206d696e7420746f20746865207a65726f206164647265737300604482015290519081900360640190fd5b6002546105f3908263ffffffff61052b16565b6002556001600160a01b03821660009081526020819052604090205461061f908263ffffffff61052b16565b6001600160a01b0383166000818152602081815260408083209490945583518581529351929391927fddf252ad1be2c89b69c2b068fc378daa952ba7f163c4a11628f55a4df523b3ef9281900390910190a35050565b6000828211156106cc576040805162461bcd60e51b815260206004820152601e60248201527f536166654d6174683a207375627472616374696f6e206f766572666c6f770000604482015290519081900360640190fd5b50900390565b600061028f3384845b6001600160a01b0383166107205760405162461bcd60e51b81526004018080602001828103825260258152602001806108636025913960400191505060405180910390fd5b6001600160a01b0382166107655760405162461bcd60e51b815260040180806020018281038252602381526020018061081e6023913960400191505060405180910390fd5b6001600160a01b03831660009081526020819052604090205461078e908263ffffffff61067516565b6001600160a01b0380851660009081526020819052604080822093909355908416815220546107c3908263ffffffff61052b16565b6001600160a01b038084166000818152602081815260409182902094909455805185815290519193928716927fddf252ad1be2c89b69c2b068fc378daa952ba7f163c4a11628f55a4df523b3ef92918290030190a350505056fe45524332303a207472616e7366657220746f20746865207a65726f206164647265737345524332303a20617070726f766520746f20746865207a65726f206164647265737345524332303a207472616e736665722066726f6d20746865207a65726f206164647265737345524332303a20617070726f76652066726f6d20746865207a65726f2061646472657373a265627a7a72315820a81082064aa5cd8b42d80a8651c2e519dcca0164bf3e45f3b7a3ddff2f06412764736f6c63430005110032",
  "source": "pragma solidity =0.5.17;\n\nimport \"@openzeppelin/contracts/token/ERC20/ERC20.sol\";\n\n/// @dev Mock class using ERC20\n/// @author Sablier\n\ncontract EvilERC20 is ERC20 {\n    bool shouldDisableTransfer;\n    bool shouldDisableTransferFrom;\n\n    constructor() public {\n        shouldDisableTransfer = false;\n        shouldDisableTransferFrom = false;\n    }\n\n    function setShouldDisableTransfer(bool value) external {\n        shouldDisableTransfer = value;\n    }\n\n    function setShouldDisableTransferFrom(bool value) external {\n        shouldDisableTransferFrom = value;\n    }\n\n    /**\n     * @dev Transfers token to a specified address, unless `shouldDisableTransfer` is `true`.\n     * @param to The address to transfer to.\n     * @param value The amount to be transferred.\n     */\n    function transfer(address to, uint256 value) public returns (bool) {\n        if (shouldDisableTransfer) {\n            return false;\n        }\n        return super.transfer(to, value);\n    }\n\n    /**\n     * @dev Transfer tokens from one address to another unless `shouldDisableTransferFrom` is `true`.\n     * @param from address The address which you want to send tokens from\n     * @param to address The address which you want to transfer to\n     * @param value uint256 the amount of tokens to be transferred\n     */\n    function transferFrom(address from, address to, uint256 value) public returns (bool) {\n        if (shouldDisableTransferFrom) {\n            return false;\n        }\n        return super.transferFrom(from, to, value);\n    }\n\n    /**\n     * @dev Allows anyone to mint tokens to any address\n     * @param to The address that will receive the minted tokens.\n     * @param amount The amount of tokens to mint.\n     * @return A boolean that indicates if the operation was successful.\n     */\n    function mint(address to, uint256 amount) public {\n        _mint(to, amount);\n    }\n}\n",
  "sourcePath": "@sablier/shared-contracts/test/EvilERC20.sol",
  "compiler": {
    "name": "solc",
    "version": "0.5.17+commit.d19bba13.Emscripten.clang"
  },
  "schemaVersion": "3.3.1",
  "updatedAt": "2021-09-20T12:21:47.110Z",
  "devdoc": {
    "author": "Sablier",
    "details": "Mock class using ERC20",
    "methods": {
      "allowance(address,address)": {
        "details": "See `IERC20.allowance`."
      },
      "approve(address,uint256)": {
        "details": "See `IERC20.approve`.     * Requirements:     * - `spender` cannot be the zero address."
      },
      "balanceOf(address)": {
        "details": "See `IERC20.balanceOf`."
      },
      "decreaseAllowance(address,uint256)": {
        "details": "Atomically decreases the allowance granted to `spender` by the caller.     * This is an alternative to `approve` that can be used as a mitigation for problems described in `IERC20.approve`.     * Emits an `Approval` event indicating the updated allowance.     * Requirements:     * - `spender` cannot be the zero address. - `spender` must have allowance for the caller of at least `subtractedValue`."
      },
      "increaseAllowance(address,uint256)": {
        "details": "Atomically increases the allowance granted to `spender` by the caller.     * This is an alternative to `approve` that can be used as a mitigation for problems described in `IERC20.approve`.     * Emits an `Approval` event indicating the updated allowance.     * Requirements:     * - `spender` cannot be the zero address."
      },
      "mint(address,uint256)": {
        "details": "Allows anyone to mint tokens to any address",
        "params": {
          "amount": "The amount of tokens to mint.",
          "to": "The address that will receive the minted tokens."
        },
        "return": "A boolean that indicates if the operation was successful."
      },
      "totalSupply()": {
        "details": "See `IERC20.totalSupply`."
      },
      "transfer(address,uint256)": {
        "details": "Transfers token to a specified address, unless `shouldDisableTransfer` is `true`.",
        "params": {
          "to": "The address to transfer to.",
          "value": "The amount to be transferred."
        }
      },
      "transferFrom(address,address,uint256)": {
        "details": "Transfer tokens from one address to another unless `shouldDisableTransferFrom` is `true`.",
        "params": {
          "from": "address The address which you want to send tokens from",
          "to": "address The address which you want to transfer to",
          "value": "uint256 the amount of tokens to be transferred"
        }
      }
    }
  },
  "userdoc": {
    "methods": {}
  }
}